:020000040800F2
:10000000B004002001010008851300080910000851
:100010008113000839080008CD1A0008000000000C
:10002000000000000000000000000000531700085E
:10003000F909000800000000170100083D18000839
:100040001B0100081B0100081B01000851170008D4
:100050001B0100081B0100083D0E00081B010008E1
:100060001B0100081B0100081B0100081B01000800
:100070001B0100081B0100081B0100081B010008F0
:100080001B0100081B0100081B0100081B010008E0
:100090001B0100081B0100081B0100081B010008D0
:1000A0001B0100081B0100081B0100081B010008C0
:1000B0001B0100081B0100081B0100081B010008B0
:1000C0001B0100081B0100081B0100081B010008A0
:1000D0001B010008A1180008BD1800081B0100083A
:1000E0001B0100081B0100081B010008DFF80CD0F1
:1000F00000F0D0FA00480047B1250008B004002005
:100100000648804706480047FEE7FEE7FEE7FEE7B1
:10011000FEE7FEE7FEE7FEE7FEE7FEE74118000820
:10012000ED000008D2B201E000F8012B491EFBD21D
:1001300070470022F6E710B513460A4604461946F2
:10014000FFF7F0FF204610BD30B505462A460B46A6
:1001500012F8010B13F8014B08B1A042F8D01CB102
:10016000002802D06D1CF1E7284630BD421C10F873
:10017000011B0029FBD1801A704730B480EA0102CC
:1001800002F0004530F0004221F0004013D090B161
:10019000C30DD40DC2F31601C0F31600E41A41F4E6
:1001A000000140F400027D34914201D3641C00E060
:1001B0004900002C02DA30BC002070474FF40000E8
:1001C0000023914201D3891A034340084FEA4101B9
:1001D000F7D151B1914202D14FF0004105E002D276
:1001E0004FF0010101E06FF0010103EBC45028441E
:1001F00030BC00F05FB896230022114600F063B8CF
:1002000000F0004230F000400AD0C10D01F56071ED
:10021000C0F3160042EA0151C2084007114370477B
:1002200000200146704730B50B46014600202022D1
:10023000012409E021FA02F59D4205D303FA02F5F3
:10024000491B04FA02F52844151EA2F10102F1DC53
:1002500030BD2DE9F05F0546002092469B4688465A
:100260000646814640241BE0284641464746224632
:1002700000F031FA53465A46C01A914110D3114644
:100280001846224600F018FA2D1A67EB01084F466F
:1002900022460120002100F00FFA17EB00094E4121
:1002A000201EA4F10104DFDC484631462A464346BD
:1002B000BDE8F09F0029A8BF7047401C490008BF57
:1002C00020F00100704710B4B0FA80FC00FA0CF086
:1002D00050EA010404BF10BC704749B1CCF12004BE
:1002E00021FA04F411FA0CF118BF0121214308434B
:1002F000A3EB0C01CB1D4FEA00614FEA102042BF77
:10030000002010BC704700EBC35010440029A4BF6C
:1003100010BC7047401C490008BF20F0010010BC11
:1003200070472DE9FE4F804681EA0300C00F0C465E
:10033000009021F0004123F00045B8EB0200A941F4
:1003400005D24046214690461C460B46024623F005
:100350000040104347D0270DC7F30A00C3F30A51EA
:100360000290401A019040286BDAC3F3130040F466
:10037000801B0098924620B10023D2EB030A63EB66
:100380000B0B01985946C0F14002504600F094F919
:1003900006460D4650465946019A00F0ACF910EB5E
:1003A00008006141002487EA115284EAE7731A4386
:1003B00040D0009A62B3019A012A4FEA075215DC35
:1003C000001B61EB02014FF0004202EA0752CDE947
:1003D0000042001C41F5801132462B4600F0ACF97A
:1003E00003B0BDE8F08F40462146F9E7001B61EB02
:1003F0000201001C41F5801300185B412018A2F592
:10040000001747EB030140EAD570B6196D4111E0C2
:100410006D084FEA360645EAC0754FEA0752001BE1
:1004200061EB0201001C41F5801149084FEA3000E0
:100430000019514132462B4603B0BDE8F04F00F0A1
:100440006CB90098012240000023D0EB020263EB5C
:10045000E073009821464FEAE074B8EB000061EBCE
:100460000401E9E783F000435BE781F0004158E7CE
:100470002DE9FE4F81EA030404F0004421F000411D
:1004800000944FF0000B23F0004350EA01045ED0CB
:1004900052EA03045BD0C3F30A54C1F30A552C4457
:1004A000A4F2F3340194A0FB0254C1F3130141F40C
:1004B0008011C3F3130343F4801301FB024400FBD8
:1004C000034E840A970A44EA815447EA8357A4FBFF
:1004D000076802958D0A05FB07854FEA932C04FBFC
:1004E0000C542705029D4FEA065847EA1637B5EB2C
:1004F00008056EEB070C870E920E47EA811742EA59
:100500008312A7FB0201B6EB0B0164EB00042B0D79
:1005100043EA0C335E1844EB1C50DA465146E7FBC5
:100520000201C5F313044FEA0B3343EA14534FEAB5
:100530000432019C43EA0603A4F10C040294009CDB
:10054000CDE900B400F0F8F803B0BDE8F08F00206A
:100550000146F9E72DE9F04D81EA030404F0004B70
:1005600021F0004514464FF0000A23F0004150EA04
:10057000050220D054EA01021DD0C5F30A570246F5
:10058000C5F31303C1F31300C1F30A5640F48015F9
:1005900043F48013A7EB0608101BD64608F2FD387B
:1005A00073EB050002D308F1010801E092185B41EA
:1005B000B8F1000F03DA00200146BDE8F08D0020FD
:1005C0004FF48011064684460EE0171B73EB0507B7
:1005D00005D3121B63EB050306434CEA010C4908E3
:1005E0004FEA300092185B4150EA0107EDD152EA20
:1005F000030012D082EA040083EA0501084305D013
:10060000101BAB4106D20122002306E000224FF06E
:10061000004302E06FF0010253101AEB06004CEBAE
:10062000085110EB0A0041EB0B01BDE8F04D00F062
:1006300074B8C1F30A52C1F3130140F2FF3341F41D
:1006400080119A4202DA00200146704740F233439B
:100650009A42A2F2334202DC524200F03CB800F06F
:100660002BB8000030B5041E71F1000404DB4FF01C
:100670000044404264EB0101141E73F1000405DBE9
:100680001C464FF00043524263EB0403994208BFFB
:10069000904230BD064C074D06E0E06840F0010393
:1006A00094E8070098471034AC42F6D3FFF722FDD8
:1006B000BC3E0008DC3E0008202A04DB203A00FA99
:1006C00002F1002070479140C2F1200320FA03F3A9
:1006D000194390407047202A04DB203A21FA02F0A7
:1006E0000021704721FA02F3D040C2F1200291406C
:1006F000084319467047202A06DBCB17203A41FAF7
:1007000002F043EAE07306E041FA02F3D040C2F19E
:100710002002914008431946704710B5141E73F12A
:10072000000408DA401C41F1000192185B411A43B1
:1007300001D120F0010010BD2DE9F04D92469B46FD
:1007400011B1B1FA81F202E0B0FA80F220329046A3
:10075000FFF7B2FF04460F4640EA0A0041EA0B01E8
:1007600053465A46084313D0114653EA010019D0A4
:10077000C8F140025046FFF7AEFF05460E46504610
:1007800059464246FFF798FF084305D0012004E090
:1007900020463946BDE8F08D0020054346EAE07664
:1007A0002C4337430A986305E40AA0EB08000022B3
:1007B000FD0A44EA47540A3002D500200146E9E721
:1007C000010510196941DDE9084500196941BDE8D5
:1007D000F04DA2E708B50121042000F03FFF012100
:1007E000084600F03BFF0121094800F0B3FB102050
:1007F0008DF803000002ADF8000003208DF8020020
:100800006946044800F01BFB002000F005F808BD15
:10081000000230000008014010B5044684F00102D7
:100820004FF48051024800F0EAFB0248047010BD0A
:10083000000801401400002000BFFEE710B50121B0
:10084000042000F00BFF00F01BF80221014800F02B
:10085000D4FB10BD0008014008B500200090022024
:10086000ADF8000048208DF8030003208DF8020049
:100870006946024800F0E3FA08BD000000080140A4
:1008800008B5002000900220ADF8000010208DF87F
:10089000030003208DF802006946024800F0CFFAF9
:1008A00008BD00000008014070B50025002424E0C8
:1008B00000BF0221134800F095FB0028F9D0282042
:1008C00000F0BAF802210F4800F08CFB01280DD18E
:1008D00000BF02210B4800F085FB0128F9D0C4F1CC
:1008E000070101208840C0B2054304E0C4F10701BC
:1008F000012088408543601CC4B2082CD8DB284600
:1009000070BD0000000801402DE9F0410446FFF7EA
:10091000B7FF0221364800F06EFB142000F06DF89E
:100920000221334800F069FB1E2000F085F8FFF734
:1009300093FF1E2000F080F802212D4800F052FBAA
:10094000002852D100BF0221294800F04BFB0028AB
:10095000F9D000BF0221264800F044FB0128F9D05D
:10096000FFF7A2FF2070FFF79FFF6070FFF79CFF6B
:10097000A070FFF799FFE070FFF796FF2071FFF777
:100980007FFF02211A4800F038FB6078217801EBE4
:10099000C10202EB011100EB81063046FFF72BFC90
:1009A00007461449FFF7E9FBA060E078A17801EB66
:1009B000C10202EB011100EB81063046FFF71BFC80
:1009C00007460C49FFF7D9FBE060207861780844BE
:1009D000A1780844E1780844C5B22079A84202D140
:1009E0000120BDE8F0810020FBE70020F9E70000CE
:1009F000000801400000C842704770B50446002658
:100A000000254FF4FA7094FBF0F0C6B24FF4FA7080
:100A100094FBF0F100FB114085B205E04FF4FA7051
:100A200000F02AF8701EC6B2002EF7D115B1284684
:100A300000F022F870BD0000002120F07F400D4A38
:100A4000127842434FF0E0235A6100229A6101225A
:100A50001A6100BF4FF0E022116901F001021AB1E2
:100A600001F48032002AF5D000224FF0E0231A6111
:100A70009A61704716000020002100B9704720F0ED
:100A80007F400E4A128842434FF0E0235A61002211
:100A90009A6101221A6100BF4FF0E022116901F052
:100AA00001021AB101F48032002AF5D000224FF081
:100AB000E0231A619A6100BFE0E7000018000020FF
:100AC0004FF0E020006920F004004FF0E0210861C1
:100AD0000920074908700846007800EB4001C1EB87
:100AE000C0104FF6FF7101EAC0000249088070474C
:100AF000160000201800002010B580210348FFF7E1
:100B000018FB00200249088010BD000030000020C2
:100B10001A00002010B5FFF7EFFF44A1454801F08F
:100B200085F8022344A21946002000F001FD03E0ED
:100B30004FF4FA70FFF7A0FF43A144A000F03AF988
:100B40000028F5D143A13B4801F070F8022344A2EC
:100B50001946002000F0ECFC03E04FF4FA70FFF7B8
:100B60008BFF39A142A000F025F90028F5D143A15F
:100B7000304801F05BF8022343A21946002000F040
:100B8000D7FC03E04FF4FA70FFF776FF2EA142A0E6
:100B900000F010F90028F5D143A1264801F046F8ED
:100BA000022345A21946002000F0C2FC03E04FF4E6
:100BB000FA70FFF761FF24A144A000F0FBF80028C1
:100BC000F5D146A11B4801F031F8022346A219468F
:100BD000002000F0ADFC03E04FF4FA70FFF74CFF8B
:100BE00046A148A000F0E6F80028F5D14FA1114831
:100BF00001F01CF8022351A21946002000F098FCD5
:100C000003E04FF4FA70FFF737FF51A152A000F054
:100C1000D1F80028F5D15CA1064801F007F80223BD
:100C20005FA21946002000F083FC10BD312E204148
:100C3000540D0A0000380140312E2041542020205C
:100C400020202020200000004F4B000041540D0ABE
:100C500000000000322E2041542B5253540D0A0044
:100C6000322E2041542B525354202020202020008B
:100C700041542B5253540D0A00000000332E2043E0
:100C8000574D4F44450D0A00332E2043574D4F44D6
:100C9000452020202000000041542B43574D4F4455
:100CA000453D310D0A000000342E2041542B43579E
:100CB000444843500D0A0000342E2041542B435722
:100CC00044484350202020202000000041542B4362
:100CD00057444843503D312C310D0A00352E2043F6
:100CE000574A41500D0A0000352E2043574A4150C3
:100CF000202020202020202000000000474F5420EA
:100D00004950000041542B43574A41503D22545012
:100D10002D4C494E4B5F31313041222C22776C7380
:100D20003136383031220D0A00000000362E2043C3
:100D3000495053544152540D0A000000362E2043AE
:100D400049505354415254202020202000000000DC
:100D5000434F4E4E4543540041542B434950535446
:100D60004152543D22544350222C226D71747473AD
:100D70002E6865636C6F7564732E636F6D222C3102
:100D80003838330D0A000000372E204553503832D2
:100D9000363620496E6974204F4B0D0A0000000062
:100DA0004553503832363620496E6974204F4B20F7
:100DB000000000002DE9F04104460D46C8262046FB
:100DC000FFF7D4F987B23A4621460D4800F052FFAA
:100DD0000FE000F019F848B929460A48FFF7B4F9BE
:100DE00020B1FFF789FE0020BDE8F0810A20FFF75F
:100DF00043FE3000A6F10101CEB2EAD10120F3E7B3
:100E000000440040300000200A48008808B9012052
:100E100070470848008808490988884203D10020A3
:100E200004490880F4E7034800880349088001204A
:100E3000EEE700001A0000201C00002070472DE99A
:100E4000F041024600250026002000230024002750
:100E500091F803C00CF00F0591F803C00CF0100CD2
:100E6000BCF1000F03D091F802C04CEA050591F8DF
:100E700000C0BCF1000F31D0146800202BE04FF00F
:100E8000010C0CFA00F3B1F800C00CEA03069E4214
:100E900020D183004FF00F0C0CFA03F7BC4305FA86
:100EA00003FC4CEA040491F803C0BCF1280F06D1FE
:100EB0004FF0010C0CFA00FCC2F814C00AE091F8E3
:100EC00003C0BCF1480F05D14FF0010C0CFA00FC37
:100ED000C2F810C0401C0828D1D31460B1F800C07B
:100EE000BCF1FF0F34DD546800202EE000F1080C47
:100EF0004FF0010808FA0CF3B1F800C00CEA030641
:100F00009E4221D183004FF00F0C0CFA03F7BC4333
:100F100005FA03FC4CEA040491F803C0BCF1280F65
:100F200005D100F1080C08FA0CF8C2F8148091F809
:100F300003C0BCF1480F07D100F1080C4FF00108C5
:100F400008FA0CF8C2F81080401C0828CED3546070
:100F5000BDE8F081F0B50A460023002400210025F9
:100F600000F00046B6F1004F02D11D4EF16901E0DC
:100F70001B4E7168C0F3034583B200F44016B6F50A
:100F8000401F08D121F07061154E766826F070661A
:100F9000134F7E6012E000F48016B6F5801F06D174
:100FA000032606FA05F4A14341F0706106E0460D00
:100FB000360103FA06F6B14341F0706122B1460DE5
:100FC000360103FA06F6314300F00046B6F1004F51
:100FD00002D1034EF16101E0014E7160F0BD0000ED
:100FE000000001400246002093680B400BB1012035
:100FF00000E00020704741617047016170470AB10D
:10100000016100E04161704700BFFEE710B54FF499
:10101000A06000F0F1F9FFF753FD4FF4E13000F06C
:1010200057FD4FF4E13000F0ABFDFFF707FC00F097
:101030000FFAFFF7CFFB00F0E9F9022304A2002129
:10104000084600F075FA07A10B4800F0EFFD10BD4F
:10105000496F74204F6E656E6574207465737420DB
:101060000000000020486172647761726520696E3B
:101070006974204F4B0D0A000038014070B50246DC
:101080000024002500230020958A138B1B0445EAC9
:10109000030626F07F4404EA01068E4201D10120B6
:1010A00000E0002070BD21B1028842F00102028000
:1010B00004E002884FF6FE731A4002807047000079
:1010C00000B585B00121480500F0A8FA01210820EB
:1010D00000F0C4FA0121084600F0C0FA0121022004
:1010E000FFF738FF1C208DF813004FF44070ADF867
:1010F000100003208DF8120004A91148FFF79FFE8D
:10110000104800F023F84FF48060ADF80A000001A9
:10111000ADF80C000C4800904BF6FF70ADF80600DF
:101120000020ADF804003020ADF8080069460548FD
:1011300000F05EF801210348FFF7B5FF05B000BDE0
:10114000000C014000540040801A060010B504460F
:101150000B48844209D10121480500F06FFA0021B3
:101160004FF4001000F06AFA08E00121880500F051
:1011700065FA00214FF4800000F060FA10BD000015
:101180000054004021B1028842F48072028004E0E1
:1011900002884FF6FF631A400280704721B102882F
:1011A00042F40072028004E002884FF6FF531A40B6
:1011B000028070470CB50246002000230193009383
:1011C00000920B0F019321F07F41019B1BB1009B0B
:1011D0001433009303E0090C009B18330093009B29
:1011E0001B680B400BB1012000E000200CBD00008B
:1011F0002DE9F04385B004460D460026B14604278C
:10120000DFF8CC80A6884FF6C0700640684600F034
:1012100035FADDF808802F48B8FBF0F01FFA80F9A6
:1012200046EA0906A68020884FF6FE710840208015
:1012300000262949286888420CD828684000B8FB55
:10124000F0F087B2042F00DA04273E4309F10100D1
:10125000208427E0E8884BF6FF71884206D1286891
:1012600000EB4000B8FBF0F087B209E0286800EB23
:10127000C00101EB0010B8FBF0F087B247F48047E3
:10128000C7F30B0008B947F0010747F400400643D5
:101290004FF4967009FB00F04FF47A7190FBF1F077
:1012A000401C2084A683208840F0010020802688EE
:1012B0004FF6F5300640A888698908430643268022
:1012C000A88929890843208105B0BDE8F083000082
:1012D00000127A0040420F00A086010012B141F0D6
:1012E000010102E04FF6FE7319400182704701824E
:1012F0007047000070B504460D4600BF4FF4003142
:101300001C48FFF757FF0028F8D101211948FFF7C3
:1013100039FF00BF18491748FFF7B0FE0028F9D081
:10132000002278211348FFF7D9FF00BF1349114865
:10133000FFF7A4FE0028F9D021460E48FFF7D7FF9B
:1013400000BF0E49891E0B48FFF798FE0028F8D011
:1013500029460848FFF7CBFF00BF0849891C05480C
:10136000FFF78CFE0028F8D001210248FFF716FF96
:1013700070BD00000054004001000300820007001F
:1013800000BFFEE77047000070B5002100230F2268
:10139000C47804B3154C246804F4E064C4F5E06434
:1013A000210AC1F10403CA40447804FA03F18478A5
:1013B0001440214309010E4C0678A155047804F02D
:1013C0001F050124AC4005786D11AD0005F1E02545
:1013D000C5F8004109E0047804F01F050124AC4081
:1013E000044D0678761145F8264070BD0CED00E0FE
:1013F00000E400E080E100E002490143024A11609C
:10140000704700000000FA050CED00E010B5002068
:1014100000F001F810BD70B50646002415E004F197
:10142000B001C8B200F03FFC002000F03CFC1020EE
:1014300000F039FC002504E0304600F03BFC681C5D
:10144000C5B2802DF8DB601CC4B2082CE7DB70BD90
:1014500010B5FFF735FE6420FFF7CFFAAE2000F09D
:1014600022FC202000F01FFC102000F01CFCB0200B
:1014700000F019FCC82000F016FC002000F013FC5E
:10148000102000F010FC402000F00DFC812000F046
:101490000AFCFF2000F007FCA12000F004FCA620BD
:1014A00000F001FCA82000F0FEFB3F2000F0FBFB59
:1014B000A42000F0F8FBD32000F0F5FB002000F0A2
:1014C000F2FBD52000F0EFFBF02000F0ECFBD92080
:1014D00000F0E9FB222000F0E6FBDA2000F0E3FB5D
:1014E000122000F0E0FBDB2000F0DDFB202000F00C
:1014F000DAFB8D2000F0D7FB142000F0D4FBAF20E6
:1015000000F0D1FB10BD70B504460D4605F1B001E9
:10151000C8B200F0C8FB102141EA141000F0C3FB70
:1015200004F00F0141F0010000F0BDFB70BD0000B0
:101530002DE9F0470646894617469A464FF00008BF
:1015400000240025BAF1010F03D0BAF1020F5ED1D9
:1015500025E020E0785D203800F0FF087E2E04DDD5
:10156000002609F1010000F0FF0949463046FFF767
:10157000CAFF002409E008EB4801264A02EB4101BA
:10158000085D00F097FB601CC4B2062CF3DBB01DB5
:10159000C6B2681CC5B2785D0028DBD137E032E006
:1015A000785D203800F0FF08782E04DD002609F170
:1015B000010000F0FF0949463046FFF7A4FF002470
:1015C00007E004EB0811144A505C00F073FB601C48
:1015D000C4B2082CF5DB09F10100C1B23046FFF7B7
:1015E00092FF002408E004EB081108310A4A505C1D
:1015F00000F060FB601CC4B2082CF4DB06F10800AC
:10160000C6B2681CC5B2785D0028C9D100BF00BF52
:10161000BDE8F087242600084C28000829B1064AB6
:10162000D2690243044BDA6104E0034AD26982437F
:10163000014BDA61704700000010024029B1064AF0
:1016400012690243044B1A6104E0034A126982439F
:10165000014B1A61704700000010024029B1064A90
:1016600092690243044B9A6104E0034A92698243FF
:10167000014B9A61704700000010024030B5002114
:101680000022002400232D4D6D6805F00C0121B1CE
:10169000042905D0082923D105E0294D056022E061
:1016A000274D05601FE0254D6D6805F47012234D30
:1016B0006D6805F48034022505EB92421CB9214D7A
:1016C000554305600BE01D4D6D6805F400351DB1F7
:1016D0001C4D5543056002E0194D5543056002E07D
:1016E000174D056000BF00BF144D6D6805F0F00197
:1016F0000909154D6B5C0568DD4045600F4D6D684F
:1017000005F4E061090A104D6B5C4568DD408560B9
:101710000A4D6D6805F46051C90A0B4D6B5C456854
:10172000DD40C560054D6D6805F44041890B074DEE
:101730006B5CC568B5FBF3F5056130BD0010024078
:1017400000127A0000093D00000000201000002077
:101750007047704710B500F001F810BD0CB50020BF
:10176000019000903348006840F4803031490860AF
:1017700000BF3048006800F4003000900198401C21
:101780000190009818B90198B0F5A06FF1D12948DF
:10179000006800F4003010B10120009001E000204A
:1017A00000900098012843D12348006840F01000C1
:1017B000214908600846006820F0070008600846D4
:1017C000006840F0020008601A4840681949486003
:1017D0000846406848600846406840F480604860B9
:1017E0000846406820F47C1048600846406840F491
:1017F000E81048600846006840F08070086000BF4C
:101800000C48006800F000700028F9D009484068D2
:1018100020F00300074948600846406840F0020095
:10182000486000BF0348406800F00C000828F9D168
:101830000CBD000000100240002002407047000074
:1018400010B51348006840F00100114908600846CF
:101850004068104908400E494860084600680E4933
:1018600008400B4908600846006820F480200860A2
:101870000846406820F4FE0048604FF41F0088606E
:10188000FFF768FF4FF000600449086010BD0000DA
:10189000001002400000FFF8FFFFF6FE08ED00E038
:1018A00010B540F22551044800F050F818B120213D
:1018B000014800F029F810BD0038014010B540F291
:1018C00025510E4800F042F8B0B10D48008880283C
:1018D00002D300200A4908800848001D0088C1B2D0
:1018E000074802880088401C054B18800548815431
:1018F0002021024800F008F810BD0000004400401C
:101900001A0000203000002001F40072B2F5007FC0
:1019100000D100BFCA430280704721B1828942F4DE
:101920000052828104E082894DF6FF731A40828161
:10193000704702460020B1F5007F00D100BF138838
:101940000B400BB1012000E00020704770B502464B
:10195000002400230025002040F66A16B14200D181
:1019600000BFC1F3421501F01F03012606FA03F37D
:10197000012D02D19689334006E0022D02D1168A4C
:10198000334001E0968A33400C12012606FA04F433
:101990001688344013B10CB1012000E0002070BD66
:1019A000F0B50346002400260025002040F66A1703
:1019B000B94200D100BF1846C1F3421401F01F061E
:1019C000012707FA06F5012C01D10C3004E0022CA6
:1019D00001D1103000E014301AB107682F430760BE
:1019E00002E00768AF430760F0BD00002DE9F04753
:1019F00086B005460E460024A24600BFA146002739
:101A0000B08900B100BF2F462C8A4CF6FF7004400D
:101A1000F08804432C82AC894EF6F3100440B08861
:101A200031890843718908430443AC81AC8A4FF67D
:101A3000FF400440B0890443AC8201A8FFF71EFEBA
:101A40001F48874202D1DDF810A001E0DDF80CA0AC
:101A5000A88900F4004040B10AEBCA0000EB0A106C
:101A600031684900B0FBF1F807E00AEBCA0000EB6F
:101A70000A1031688900B0FBF1F86420B8FBF0F07F
:101A800004012009642101FB1089A88900F40040A9
:101A900040B1322000EBC900B0FBF1F000F00700CC
:101AA000044308E0322000EB09106421B0FBF1F0A0
:101AB00000F00F0004432C8106B0BDE8F087000061
:101AC00000380140C1F308028280704700BFFEE782
:101AD00010B586B0044601210420FFF7BFFD0121A7
:101AE0008803FFF7BBFD18208DF817004FF4007036
:101AF000ADF8140003208DF8160005A91E48FFF765
:101B00009EF904208DF817000002ADF814000320A0
:101B10008DF8160005A91848FFF791F901940020E7
:101B2000ADF810000C20ADF80E000020ADF80C0050
:101B3000ADF80A00ADF8080001A91048FFF756FFFC
:101B400001210E48FFF7E9FE012240F225510B4822
:101B5000FFF726FF25208DF8000001208DF80300F7
:101B600000208DF8010002208DF802006846FFF782
:101B70000BFC06B010BD0000000801400038014019
:101B800010B586B0044601210420FFF767FD01214E
:101B90004804FFF743FD18208DF817000420ADF826
:101BA000140003208DF8160005A91E48FFF747F919
:101BB00004208DF817000820ADF8140003208DF8DC
:101BC000160005A91748FFF73AF901940020ADF86F
:101BD00010000C20ADF80E000020ADF80C00ADF8A0
:101BE0000A00ADF8080001A90F48FFF7FFFE012128
:101BF0000D48FFF792FE012240F225510A48FFF7F7
:101C0000CFFE26208DF8000001208DF80300002073
:101C10008DF801008DF802006846FFF7B5FB06B0AD
:101C200010BD000000080140004400400FB430B572
:101C3000CBB0054601AC50A800904FF4947101A8B8
:101C4000009B4F9A00F03EF8002000900BE014F843
:101C5000011B2846FFF736FF00BF40212846FFF74B
:101C600068FE0028F9D020780028F0D14BB030BCB5
:101C70005DF814FB2DE9F04107460C461546002699
:101C80000DE014F8011B3846FFF71CFF00BF402190
:101C90003846FFF74EFE0028F9D0701C86B2AE42DF
:101CA000EFDBBDE8F08110B5044621460020FFF7C8
:101CB00021FB10BD10B5044621464020FFF71AFB5A
:101CC00010BD00007CB5491E1C461546CDE900013B
:101CD000044B6A462146284600F0C8F8009A0021C5
:101CE00011707CBD9B25000802E008C8121F08C1C6
:101CF000002AFAD170477047002001E001C1121F8D
:101D0000002AFBD1704700002DE9FF5FDDE90220CA
:101D1000010DDDF838B0024318D044F61050A1F29E
:101D2000FF3141430D140F98012820D0A5EB0B0083
:101D3000401C5FEA000A4FF00004474EDFF81C9198
:101D4000A046504616D5CAF1000728E00F98012496
:101D500043A2012808D0002100980F9BC0E9002170
:101D6000C0E90243BDE8FF9F6FEA0B01F4E7CBF146
:101D70000000DEE7074612E0F80707D022463346A8
:101D800040464946FEF774FB804689462246334664
:101D900010461946FEF76CFB04460E467F10002FD6
:101DA000EAD1DDE90201BAF1000F42464B4602DA00
:101DB000FEF75EFB01E0FEF7CDFB04460E46002277
:101DC000284BFEF74FFC03D84FF0FF30014607E0E9
:101DD0000022254B20463146FEF7A3FAFEF729FCE8
:101DE000102409E0002C0ADB0A220023FEF731FA56
:101DF000019B30321A55641E50EA0102F2D1641C74
:101E0000019AC4F1110314440F9A012A03D001224C
:101E100008430DD10AE0084304D000204FF0110B15
:101E20000F9080E7A3EB0B056D1E0DE05B4504DD15
:101E30004FF0000205F1010504E003DA4FF0000263
:101E4000A5F10105002AECD000980F99C0E90231F4
:101E5000C0E9004586E70000000024400000F03F94
:101E6000300000000000F0430000E03F2DE9FF4F8C
:101E700095B09B468946064600250FE2252877D176
:101E800000242746F84A0121059400E0044316F88F
:101E9000013F203B01FA03F01042F7D130782A28A5
:101EA00011D06FF02F033078A0F13002092A16D834
:101EB000059A44F0020402EB820203EB4202104452
:101EC000761C0590EFE759F8042B0592002A03DAF7
:101ED000504244F40054059044F00204761C3078DB
:101EE0002E2816D116F8010F44F004042A280DD02C
:101EF0006FF02F023078A0F13003092B09D807EBDF
:101F0000870302EB4303C718761CF3E759F8047BF9
:101F1000761C30786C280FD006DC4C2817D0682847
:101F20000DD06A2814D104E0742810D07A280FD17B
:101F30000DE044F400140AE044F4801401E044F499
:101F400040147278824202D104F58014761C761C0B
:101F5000307866280BD013DC582877D009DC0028AD
:101F600075D04528F6D04628F4D047281AD19DE1EF
:101F700018E0632835D0642879D0652812D195E11E
:101F8000702873D008DC6728F1D069286FD06E28DC
:101F90000DD06F2806D1B5E073282CD0752875D0E8
:101FA000782874D05A46179990476D1C75E1C4F390
:101FB0000250022809D003280DD0D9F800100428B7
:101FC0000DD00D6009F1040967E1D9F80010EA1796
:101FD000C1E90052F6E7D9F800100D80F2E70D7064
:101FE000F0E719F8041B8DF8001000208DF80100AF
:101FF000EA46012003E059F804AB4FF0FF306107D7
:102000004FF0000102D40DE008F101018846B94209
:102010000FDA8045F8DB1AF808100029F4D108E03F
:1020200008F1010188468142FADB1AF808100029FC
:10203000F6D105985B46A0EB080721463846179A6B
:1020400000F094FA284400EB080507E04DE029E190
:102050000DE01AF8010B5A4617999047B8F101089C
:10206000F7D25B4621463846179A13E142E00A222E
:102070000092C4F302524FF0000A022A08D059F825
:1020800004CB032A4FEAEC710AD00DE029E02AE0E4
:1020900009F1070121F00702F2E802C1914609E0C7
:1020A0000FFA8CFC4FEAEC71042A03D14FFA8CFC36
:1020B0004FEAEC71002907DA0A460021DCF1000C36
:1020C00061EB02012D2202E0220504D52B228DF8BE
:1020D0000420012203E0E20701D02022F7E7904626
:1020E00059E00A2102E010220DE010214FF0000A11
:1020F00000910BE010224FF0000A44F0040408277E
:10210000009203E008224FF0000A0092C4F302524A
:10211000022A05D059F804CB0021032A08D009E08F
:1021200009F1070121F00702F2E802C1914605E03A
:102130001FFA8CFC042A01D10CF0FF0C4FF00008B0
:10214000220728D5702806D0009B83F0100353EA9D
:102150000A0305D00EE040228DF80420012208E099
:102160005CEA010206D030228DF804208DF80500CB
:1021700002229046009B83F0080353EA0A030AD127
:102180005CEA010201D1620705D530228DF80420F6
:102190004FF001087F1E582804D034A003900EA8E9
:1021A00002900DE036A0F9E753466046009AFEF72C
:1021B00050F884460398825C0298401E0290027098
:1021C0005CEA0100F0D1029806A9081A00F1200A81
:1021D000600702D524F4803400E00127574502DD72
:1021E000A7EB0A0000E0002000EB0A010090059830
:1021F0004144401A0590E00306D45B462146179AF5
:10220000059800F0B3F90544002706E001A85A46F6
:10221000C05D179990476D1C7F1C4745F6DBE003B6
:102220000CD55B462146179A059800F09FF90544A6
:1022300004E030205A46179990476D1C0099481EBB
:1022400000900029F5DC08E0029802995A460078CF
:10225000491C0291179990476D1CBAF10001AAF12F
:10226000010AF1DC65E10000092801003031323358
:1022700034353637383961626364656600000000C2
:1022800030313233343536373839414243444546AC
:102290000000000000F058F90544761C3078002852
:1022A0007FF4ECAD19B02846BDE8F08F620700D48A
:1022B000062709F1070222F0070CFCE80223E14699
:1022C00003F000485FEA080C02D00FF2702C0DE01A
:1022D0005FEA045C02D50FF2682C07E05FEAC47C79
:1022E00002D00FF2602C01E0AFF2700C4FF0FF381B
:1022F00023F00043CDF850C065280CD006DC4528FB
:1023000009D046281DD047283DD13DE0662818D089
:1023100067287ED138E00021112F01DB112000E079
:10232000781CCDE9000106A90EA8FFF7EDFCDDE958
:102330000F010E9A03910021009207F1010A049106
:102340004DE04FF000400097CDE9011006A90EA81E
:10235000FFF7DAFCDDE90F0203920E9B11990022D0
:10236000DDF80CA00093049211B9791C00EB010A6E
:10237000B7EB0A0004D4C0F1FF3007F1010A049062
:10238000AAEB0700019044E0012F00DA01270021A9
:10239000112F01DD112000E03846CDE9000106A92A
:1023A0000EA8FFF7B1FCDDE90F010E9A03910021A1
:1023B00004910092BA4621070CD40399514500DAE2
:1023C0008A46BAF1010F05DD009AAAF10101515CBC
:1023D000302908D0B84202DA10F1040F06DA0121E0
:1023E000CDE9011015E0AAF10101E9E7002805DCBB
:1023F000049901440491AAEB000102E0411C5145FB
:1024000000DD8A460499401A401C01904FF00040BC
:102410000290200704D40198504501DBCDF80480D8
:1024200000208DF84F0002980DF14F07B0F1004FDA
:1024300025D02B200E9002984FF0020800280CDACD
:10244000404202902D200E9007E00A210298FDF7ED
:10245000EAFE3031029007F8011DB8F10001A8F141
:102460000108F2DC02980028EFD1791E0E9808705E
:10247000307800F0200040F0450007F8020D12A867
:10248000C01B00F107081498007800B1012000EB90
:102490000A01019801EBE07105984144401A401E81
:1024A0000590E00306D45B462146179A059800F094
:1024B0005DF805441498007818B15A46179990476A
:1024C0006D1CE00324D55B462146179A059800F061
:1024D0004DF805441CE00498002807DBDDE9030102
:1024E000884203DD0098405C179901E0179930207D
:1024F0005A469047049805F10105401C0490019844
:10250000401E019004D12E205A46179990476D1C09
:10251000BAF10001AAF1010ADDDC05E017F8010BB0
:102520005A46179990476D1CB8F10001A8F10108AF
:10253000F4DC5B462146179A0598ABE62D000000B7
:102540002B000000200000002DE9F041044600258A
:102550001E461746880404D405E039462020B047BB
:102560006D1C641EF9D52846BDE8F0812DE9F041C7
:10257000044600251E469046C80301D5302700E0DA
:102580002027880404D505E041463846B0476D1C35
:10259000641EF9D52846BDE8F0814A68002A06D0B5
:1025A0000A68531C0B6010704868401E48607047F2
:1025B0001CB500BF00BFFEF729FDFEF7ABFA0120F6
:1025C000FEF72AF9FA20FEF718FA0020FEF724F9A0
:1025D00019E00D48FEF798F90B498868FDF710FEE1
:1025E00004460D460849C868FDF70AFE064632460D
:1025F0000B4606A10A48CDE90045FFF717FB4FF44B
:102600007A70FEF7FAF9E4E720000020543A252E0C
:102610003166202020483A252E30660D0A00000041
:10262000003801400000000000000000002F000002
:1026300000000700070000147F147F1400242A7F85
:102640002A12006264081323003649552250000004
:102650000503000000001C224100000041221C0074
:102660000014083E08140008083E0808000000A0F6
:1026700060000008080808080000606000000020F2
:1026800010080402003E5149453E0000427F4000D0
:10269000004261514946002141454B310018141256
:1026A0007F10002745454539003C4A494930000123
:1026B0007109050300364949493600064949291E72
:1026C00000003636000000005636000000081422D4
:1026D00041000014141414140000412214080002D4
:1026E0000151090600324959513E007C1211127CF9
:1026F000007F49494936003E41414122007F414126
:10270000221C007F49494941007F09090901003E17
:102710004149497A007F0808087F0000417F410055
:10272000002040413F01007F08142241007F4040CB
:102730004040007F020C027F007F0408107F003EB3
:102740004141413E007F09090906003E4151215E99
:10275000007F091929460046494949310001017F96
:102760000101003F4040403F001F2040201F003F2C
:102770004038403F006314081463000708700807DE
:1027800000615149454300007F41410000552A55F1
:102790002A55000041417F0000040201020400406C
:1027A000404040400000010204000020545454788E
:1027B000007F4844443800384444442000384444AE
:1027C000487F00385454541800087E09010200184C
:1027D000A4A4A47C007F080404780000447D400089
:1027E000004080847D00007F102844000000417F6D
:1027F0004000007C04180478007C08040478003849
:102800004444443800FC242424180018242418FCD0
:10281000007C0804040800485454542000043F4439
:102820004020003C4040207C001C2040201C003CFC
:102830004030403C004428102844001CA0A0A07C4C
:10284000004464544C441414141414140000000084
:10285000000000000000000000000000000000F880
:1028600000000000000000333000000000100C06E3
:10287000100C0600000000000000000040C078407E
:10288000C0784000043F04043F040400007088FC4A
:1028900008300000001820FF211E0000F008F000A2
:1028A000E018000000211C031E211E0000F0088813
:1028B000700000001E2123241927211010160E007D
:1028C000000000000000000000000000000000E028
:1028D000180402000000000718204000000204183D
:1028E000E00000000040201807000000404080F099
:1028F000804040000202010F01020200000000F0CF
:10290000000000000101011F0101010000000000A2
:102910000000000080B07000000000000000000017
:1029200000000000000101010101010100000000A0
:102930000000000000303000000000000000000037
:1029400080601804006018060100000000E0100814
:102950000810E000000F102020100F00001010F8E9
:10296000000000000020203F202000000070080828
:1029700008887000003028242221300000300888A8
:10298000884830000018202020110E000000C020D0
:1029900010F8000000070424243F240000F80888F1
:1029A000880808000019212020110E0000E010887E
:1029B00088180000000F112020110E0000380808B0
:1029C000C83808000000003F0000000000708808C0
:1029D00008887000001C222121221C0000E0100841
:1029E0000810E0000000312222110F00000000C09A
:1029F000C000000000000030300000000000008037
:102A00000000000000008060000000000000804026
:102A1000201008000001020408102000404040403F
:102A20004040400004040404040404000008102092
:102A300040800000002010080402010000704808D7
:102A40000808F0000000003036010000C030C8283F
:102A5000E810E0000718272423140B000000C038FA
:102A6000E0000000203C23020227382008F8888874
:102A700088700000203F202020110E00C030080880
:102A800008083800071820202010080008F8080857
:102A90000810E000203F202020100F0008F8888850
:102AA000E8081000203F20202320180008F888881C
:102AB000E8081000203F200003000000C030080894
:102AC0000838000007182020221E020008F808001D
:102AD0000008F808203F210101213F20000808F8E4
:102AE000080800000020203F202000000000080807
:102AF000F8080800C08080807F00000008F888C0C7
:102B000028180800203F20012638200008F8080077
:102B100000000000203F20202020300008F8F800AE
:102B2000F8F80800203F003F003F200008F830C0C0
:102B30000008F808203F200007183F00E0100808B0
:102B40000810E0000F10202020100F0008F80808DF
:102B50000808F000203F210101010000E0100808F2
:102B60000810E0000F18242438504F0008F8888817
:102B700088887000203F2000030C302000708808F7
:102B8000080838000038202121221C00180808F805
:102B9000080818000000203F2000000008F8080086
:102BA0000008F808001F202020201F000878880057
:102BB00000C83808000007380E010000F80800F8C7
:102BC0000008F800033C0700073C03000818688071
:102BD0008068180820302C03032C30200838C800E7
:102BE000C83808000000203F200000001008080836
:102BF000C83808002038262120201800000000FED8
:102C0000020202000000007F40404000000C30C083
:102C100000000000000000010638C00000020202AF
:102C2000FE000000004040407F0000000000040261
:102C3000020204000000000000000000000000008C
:102C4000000000008080808080808080000202047C
:102C50000000000000000000000000000000808074
:102C6000808000000019242222223F2008F80080E2
:102C700080000000003F112020110E0000000080A5
:102C800080800000000E1120202011000000008034
:102C90008088F800000E112020103F200000808066
:102CA00080800000001F222222221300008080F07A
:102CB000888888180020203F2020000000008080A5
:102CC00080808000006B94949493600008F80080EA
:102CD00080800000203F210000203F200080989845
:102CE000000000000020203F2020000000000080A5
:102CF0009898000000C08080807F000008F80000E5
:102D000080808000203F24022D302000000808F839
:102D1000000000000020203F2020000080808080F4
:102D200080808000203F20003F20003F8080008086
:102D300080800000203F210000203F200000808094
:102D400080800000001F202020201F008080008045
:102D50008000000080FFA12020110E0000000080F4
:102D600080808000000E112020A0FF8080808000E5
:102D70008080800020203F21200001000000808012
:102D8000808080000033242424241900008080E007
:102D9000808000000000001F2020000080800000D4
:102DA00000808000001F202020103F2080808000B5
:102DB0000080808000010E300806010080800080C5
:102DC000008080800F300C030C300F0000808000EA
:102DD000808080000020312E0E3120008080800015
:102DE0000080808080818E701806010000808080C5
:102DF000808080000021302C222130000000000063
:102E0000807C020200000000003F40400000000003
:102E1000FF00000000000000FF0000000002027C34
:102E2000800000000040403F00000000000601015B
:102E3000020204040000000000000000000828480E
:102E4000880808FF8808894A280800000000000058
:102E5000000000000000000000000000001010084A
:102E60000442817F000102040810100000000000ED
:102E7000000000000000000000000000000404F456
:102E80005454545F545454F40404000000000000EF
:102E90000000000000000000000000001010905F23
:102EA000351515151515355F901010000000000040
:102EB0000000000000000000000000000000F88892
:102EC000888888FF88888888F80000000000000053
:102ED00000000000000000000000000000001F08CB
:102EE0000808087F888888889F80F000000000001C
:102EF00000000000000000000000000080828282CC
:102F0000828282E2A2928A86828080000000000093
:102F100000000000000000000000000000000000B1
:102F20000040807F00000000000000000000000062
:102F30000000000000000000000000002424A4FEA7
:102F4000A3220022CC0000FF0000000000000000CF
:102F5000000000000000000000000000080601FF63
:102F600000010404040404FF020202000000000047
:102F7000000000000000000000000000101010FF22
:102F8000109008888888FF88888808000000000062
:102F90000000000000000000000000000444827FE8
:102FA00001808040432C10284681800000000000F2
:102FB00000000000000000000000000088681FC83A
:102FC0000810C85452D1129408D01000000000001C
:102FD000000000000000000000000000091909FFC7
:102FE0000500FF1292FF005F807F000000000000DC
:102FF00000000000000000000000000000000000D1
:103000000001E21CE00000000000000000000000E1
:1030100000000000000000000000000080402010C0
:103020000C03000000030C30408080000000000012
:10303000000000000000000000000000101010FF61
:103040001094E42424FF242425E60400000000005A
:103050000000000000000000000000000444827F27
:103060000100FF09097F0949897F00000000000075
:103070000000000000000000000000000414A44450
:10308000AF14040404F40F244404040000000000FE
:10309000000000000000000000000000124984420F
:1030A0003F8141310D030D3141818100000000005D
:1030B00000000000000000000000000000FC04040C
:1030C000FC0004146404FE0243320000000000000F
:1030D000000000000000000000000000000F0404D9
:1030E0000F00010141817F0101010100000000008A
:1030F00000000000000000000000000000FC0404CC
:10310000FC0202FE0202625A46C0000000000000FB
:10311000000000000000000000000000000F040498
:103120004F308E8146281028468180000000000024
:10313000000000000000000000000000807000FFA0
:10314000201004040404FC04040404000000000033
:103150000000000000000000000000008060180770
:103160000830000040807F000000000000000000E8
:1031700000000000000000000000000040221408D1
:10318000F40200F80808FF0808F80000000000003A
:103190000000000000000000000000000844824120
:1031A0003F00206321213F212933600000000000FF
:1031B000000000000000000000000000001010905F
:1031C00010101116101010D0101000000000000098
:1031D00000000000000000000000000040404040EF
:1031E000435C4040504C43404040400000000000E1
:1031F000000000000000000000000000101010FFA0
:103200009020988888E98E8888A89800000000009F
:103210000000000000000000000000000242817F6A
:10322000000080844B281028478000000000000028
:103230000000000000000000000000004030EF240B
:103240002480E49C105454FF547C100000000000C3
:1032500000000000000000000000000001017F21CC
:10326000512618274445455F4545440000000000AD
:103270000000000000000000000000001060028C50
:1032800000FE02F202FE00F800FF00000000000055
:1032900000000000000000000000000004047E01A7
:1032A0008047300F10270047807F0000000000009B
:1032B000000000000000000000000000404042CC80
:1032C000009090909090FF101116100000000000E8
:1032D0000000000000000000000000000000003FAF
:1032E0001028603F1010010E3040F0000000000078
:1032F0000000000000000000000000001010D0FFDF
:103300009014E4AFA4A4A4AFE40400000000000003
:10331000000000000000000000000000040300FFA7
:1033200000894B2A1A0E1A2A4B88800000000000E0
:103330000000000000000000000000009052341067
:10334000FF10345280708F0808F808000000000059
:10335000000000000000000000000000829A566398
:1033600022528E008040330C334080000000000069
:10337000000000000000000000000000C8B88FE856
:103380008888404848E85F484848400000000000FE
:10339000000000000000000000000000081808FF06
:1033A000040400020B1222D20A06000000000000F2
:1033B000000000000000000000000000101010FFDE
:1033C000902010E82724E4342CE0000000000000E6
:1033D0000000000000000000000000000242817FA9
:1033E00000848447241C071C24478400000000003C
:1033F00000000000000000000000000040404244C7
:1034000058C0407F40C05048464040000000000087
:10341000000000000000000000000000808040204C
:1034200018070000003F40404040780000000000C6
:1034300000000000000000000000000000FE42420A
:1034400042FE0042A29E82A2C2BE00000000000016
:10345000000000000000000000000000806F08086D
:1034600028CF00002FC8080828CF00000000000067
:103470000000000000000000000000000000FC242C
:103480002424FC252624FC2424240400000000001D
:1034900000000000000000000000000040308F80AD
:1034A000844C55252525554C808080000000000067
:1034B00000000000000000000000000000F29292F6
:1034C00092929E00F2929292929E00000000000062
:1034D0000000000000000000000000000010114A81
:1034E00088443F0010114A88443F0000000000005B
:1034F0000000000000000000000000000000F010CC
:10350000101010FF10101010F0000000000000005C
:1035100000000000000000000000000000000F0498
:10352000040404FF040404040F0000000000000071
:1035300000000000000000000000000002E2222263
:103540003E00809E9292F292929E800000000000C7
:103550000000000000000000000000000043824264
:103560003E40474444447F444454E7000000000088
:10357000000000000000000000000000807000FF5C
:1035800010289827C43C907F90121400000000007F
:10359000000000000000000000000000806018072C
:1035A0000898640328C621C01126C8000000000046
:1035B00000000000000000000000000020104C4748
:1035C00054545454545454D40404000000000000D3
:1035D00000000000000000000000000000000000EB
:1035E000000000000000000F3040F000000000006C
:1035F0000000000000000000000000001060028CCD
:103600002020FE2020FF2020FF20200000000000BE
:1036100000000000000000000000000004047E0123
:1036200000007F4040474444474040000000000005
:10363000000000000000000000000000100C055514
:103640005555057F05D5555505140C0000000000A3
:1036500000000000000000000000000080F7857DF1
:103660005557000AE9ABA5A5EB08080000000000CB
:10367000000000000000000000000000000202C284
:10368000020202FE828282828202000000000000AA
:103690000000000000000000000000004040407FEB
:1036A0004040407F4040404040404000000000001B
:1036B000000000000000000000000000201808EAE0
:1036C000ACA8A8AFA8A8ACEA082818000000000021
:1036D00000000000000000000000000000003E02AA
:1036E000020202FF020212221E000000000000007F
:1036F0000000000000000000000000000000C038D2
:10370000000000FF00004020180000000000000042
:103710000000000000000000000000008081402048
:10372000100C0300030C10204080800000000000FB
:10373000000000000000000000000000807000FF9A
:103740001008209088874404948C800000000000BA
:10375000000000000000000000000000806018076A
:10376000083000FF444440404444FF000000000093
:1037700000000000000000000000000004040484B9
:10378000E43C2724242424E4040404000000000072
:103790000000000000000000000000000402010022
:1037A000FF0909090949897F0000000000000000A5
:1037B0000000000000000000000000000040424245
:1037C00042C27E42C242424240400000000000002D
:1037D00000000000000000000000000080402010F9
:1037E0000C0300003F40404040700000000000001B
:1037F0000000000000000000000000001060028CCB
:103800000000FE9292929292FE00000000000000E2
:1038100000000000000000000000000004047E0121
:10382000407E42427E427E42427E400000000000D6
:103830000000000000000000000000001060028C8A
:1038400000FE929292929292FE0000000000000010
:1038500000000000000000000000000004047E01E1
:103860004448507F40407F504844400000000000E2
:103870000000000000000000000000000000FC2428
:103880002424FC252624FC24242404000000000019
:1038900000000000000000000000000040308F80A9
:1038A000844C55252525554C808080000000000063
:1038B000000000000000000000000000060909E60A
:1038C000F80C040202020202041E000000000000C4
:1038D00000000000000000000000000000000007E1
:1038E0001F302040404040402010000000000000F9
:1038F00000000000000000000000000000FE0222A6
:10390000DA0620D808090E088828180000000000F0
:1039100000000000000000000000000000FF081090
:103920000807003F44444241407800000000000086
:1039300000000000000000000000000000F808FF88
:1039400008F8003EAA6A3E2AAA3E000000000000D5
:103950000000000000000000000000002063211FA4
:1039600011394829098DFB09082C58000000000076
:10397000000000000000000000000000008060F86F
:1039800007001CE0010600E01E000000000000002F
:10399000000000000000000000000000010000FF27
:1039A00000804020130C13204080800000000000A5
:1039B00000000000000000000000000020C20C8099
:1039C0007CD655547C4030DF10F010000000000021
:1039D00000000000000000000000000004047E81E0
:1039E000621E4B8A7A028067186780000000000020
:1039F00000000000000000000000000040404244C1
:103A000058C0407F40C05048464040000000000081
:103A10000000000000000000000000008080402046
:103A200018070000003F40404040780000000000C0
:103A3000000000000000000000000000003E22E244
:103A4000223E00FE2222222222E20200000000008A
:103A5000000000000000000000000000203F201FC8
:103A60001111007F444444444447400000000000DA
:103A7000000000000000000000000000040404F446
:103A800084D4A5A6A4D484F4040404000000000097
:103A900000000000000000000000000000FE020224
:103AA000123A1613121A3242827E00000000000001
:103AB00000000000000000000000000000000808F6
:103AC00008080808080808080800000000000000AE
:103AD00000000000000000000000000010101010A6
:103AE0001010101010101010101010000000000026
:103AF0000000000000000000000000000824236A0D
:103B0000AA2AAA6A2A2A2AEA020200000000000061
:103B1000000000000000000000000000101115155A
:103B200015FF15151511100F3040F80000000000AA
:103B3000000000000000000000000000008060F8AD
:103B400007000000FF4020100804000000000000F3
:103B5000000000000000000000000000010000FF65
:103B6000000402013F404040404078000000000057
:103B700000000000000000000000000004E45C44BD
:103B8000C400809EF0909F90909E800000000000F6
:103B9000000000000000000000000000013F1010C5
:103BA0007F201806914C300F304884000000000040
:103BB0000000000000000000000000000000FE22E5
:103BC000222222FE22222222FE000000000000000B
:103BD00000000000000000000000000000000702DC
:103BE000020202FF020202020700000000000000C1
:103BF000000000000000000000000000F212FE12B1
:103C0000FE12F200844F2414244F840000000000B0
:103C1000000000000000000000000000FF4A4948CA
:103C20004949FF004049497F4949400000000000E0
:103C30000000000000000000000000000000F80884
:103C400008F80C0B08F80808F80000000000000055
:103C500000000000000000000000000040407F4025
:103C6000407F4040407F40407F40400000000000D7
:103C70000000000000000000000000000824236A8B
:103C8000AA2AAA6A2A2A2AEA0202000000000000E0
:103C900000000000000000000000000010111515D9
:103CA00015FF15151511100F3040F8000000000029
:103CB0000000000000000000000000000000800084
:103CC00000E0020418000000408000000000000036
:103CD000000000000000000000000000100C0300C5
:103CE000003F40404040407800010E0000000000CE
:103CF0000000000000000000000000000014A444C8
:103D00002434AD6624940444A41400000000000090
:103D10000000000000000000000000000809080882
:103D2000090909FD09090B0808090800000000003D
:103D30000000000000000000000000001060028C85
:103D4000201808C838CF0808289800000000000094
:103D500000000000000000000000000004047E01DC
:103D6000040201FF4021060A11204000000000006B
:103D70000000000000000000000000000000FC2423
:103D80002424FC252624FC24242404000000000014
:103D900000000000000000000000000040308F80A4
:103DA000844C55252525554C80808000000000005E
:103DB000000000000000000000000000004042423F
:103DC00042C27E42C2424242404000000000000027
:103DD00000000000000000000000000080402010F3
:103DE0000C0300003F404040407000000000000015
:103DF0000000000000000000000000002030AC6364
:103E00002018809090FF90494A4840000000000030
:103E100000000000000000000000000022672212E5
:103E20001212404020130C142241F8000000000040
:103E30000000000000000000000000004042CC0034
:103E400000E2222A2AF22A2622E0000000000000D6
:103E500000000000000000000000000080403F4023
:103E600080FF898989BF89A9C9BF8000000000003F
:103E7000000000000000000000000000008060F86A
:103E80000700042424252624242404000000000024
:103E9000000000000000000000000000010000FF22
:103EA000000000F94949494949F9000000000000B3
:103EB000000000000000000000000000DC3E0008E0
:103EC0000000002020000000E81C0008FC3E000864
:103ED0002000002090040000F81C000800000000F2
:103EE000010203040102030406070809020406088C
:0C3EF000000000000000000000000000C6
:04000005080000ED02
:00000001FF
