:020000040800F2
:10000000300B002005010008FD2A00080F1B000826
:10001000F92A0008E112000861420008000000000F
:100020000000000000000000000000001B3A000873
:10003000E5120008000000001B010008053C000854
:100040001F0100081F0100081F010008193A0008DD
:100050001F0100081F0100084D1900081F010008BA
:100060001F0100081F0100081F0100081F010008F0
:100070001F0100081F0100081F0100081F010008E0
:100080001F0100081F0100081F0100081F010008D0
:100090001F0100081F0100081F0100081F010008C0
:1000A0001F0100081F0100081F0100081F010008B0
:1000B0001F0100081F0100081F0100081F010008A0
:1000C0001F0100081F0100081F0100081F01000890
:1000D0001F010008D93E0008F53E00081F01000876
:1000E0001F0100081F0100081F010008DFF810D0E1
:1000F00000F07EFD00480047E1570008AFF30080A4
:10010000300B00200648804706480047FEE7FEE720
:10011000FEE7FEE7FEE7FEE7FEE7FEE7FEE7FEE7B7
:10012000793C0008ED000008A0F14101192900D830
:100130002030704740EA01039B0703D009E008C95B
:10014000121F08C0042AFAD203E011F8013B00F89C
:10015000013B521EF9D27047D2B201E000F8012BE8
:10016000491EFBD270470022F6E710B513460A4637
:1001700004461946FFF7F0FF204610BD421E12F854
:10018000013F002BFBD111F8013B02F8013B002B92
:10019000F9D1704730B505462A460B4612F8010BD7
:1001A00013F8014B08B1A042F8D01CB1002802D0CE
:1001B0006D1CF1E7284630BDCAB2401E10F8011F81
:1001C0008A4202D00029F9D100207047421C10F861
:1001D000011B0029FBD1801A704710B5044600E0CE
:1001E000401C0378002BFBD100E0401C521E04D3BE
:1001F00011F8013B0370002BF7D10021017020465C
:1002000010BD034611F8012B00F8012B002AF9D18B
:100210001846704730B505460020034600E05B1CD9
:10022000934205D2EC5CC85C201A01D1002CF6D1B7
:1002300030BD00000FB400B58DB010A909900B902F
:1002400000914FF0FF300A9000200C900548069076
:10025000054807906A4609A80F9900F0D7FB0DB032
:100260005DF814FB290A0008470A00082DE9FF5F22
:100270001D464FF0FF3BD5E9014691465F464FF0E2
:100280000008A9697F1C01988847296A8246884727
:100290000028F6D1BAF1FF3F0CD024F4C064002E40
:1002A00019DD600614D5BAF12B0F09D0BAF12D0F64
:1002B0000ED103E0584604B0BDE8F09F44F48064DA
:1002C000A9697F1C01988847761E8246002E02DDB0
:1002D000BAF1300F03D0B9F1000F26D032E0A9698E
:1002E000761E44F400747F1C019888478246002ED5
:1002F00005DDBAF1780F06D0BAF1580F03D0B9F185
:10030000000F10D01EE0B9F1000F02D0B9F1100FAC
:1003100018D1A969761E24F400747F1C01988847BF
:100320008246102002E0082000E00A20814609E011
:1003300008FB0908A969761E44F400747F1C019823
:1003400088478246002E05DD4946504600F04AFBAC
:100350000028EDDAE96901988847A00502D46FF01A
:100360000100A8E7E00725D1600613D5600502D596
:10037000C8F1000000E0404629680A1D2A600968AB
:10038000220501D5087015E0220701D5088011E08B
:1003900008600FE02868011D29600068210502D56A
:1003A00080F8008006E0210702D5A0F8008001E077
:1003B000C0F8008038467EE72DE9FF5FD2E901A74B
:1003C0004FF00008916999461446DDF838B046466A
:1003D00001988847054659EA0B0005D009E0A16954
:1003E000761C019888470546216A284688470028D8
:1003F000F5D1681C03D05FEACA7005D015E04FF054
:10040000FF3004B0BDE8F09F2068011D2160D0F8E6
:1004100000800AE05FEACA7001D108F8015BA169B7
:10042000761C7F1E019888470546002F1ADD681C40
:1004300018D0B9F1000F0DD0E81705EBD0604211CC
:1004400020F01F0059F822102A1A01209040014282
:10045000E0D107E0BBF1000FDCD1216A28468847D4
:100460000028D7D0E16901988847BBF1000F07D178
:10047000002E05DD5FEACA7002D1002188F8001065
:10048000A068B84203DDBBF1000F03D017B16FF0D5
:100490000100B6E73046B4E72DE9FE4F804681EA19
:1004A0000300C00F0C46009021F0004123F00045EE
:1004B000B8EB0200A94105D24046214690461C46B1
:1004C0000B46024623F00040104347D0270DC7F3E8
:1004D0000A00C3F30A510290401A019040286BDAD7
:1004E000C3F3130040F4801B0098924620B1002310
:1004F000D2EB030A63EB0B0B01985946C0F14002A3
:10050000504600F03EFA06460D4650465946019ABE
:1005100000F056FA10EB08006141002487EA1152FE
:1005200084EAE7731A4340D0009A62B3019A012A21
:100530004FEA075215DC001B61EB02014FF000424D
:1005400002EA0752CDE90042001C41F58011324613
:100550002B4600F0CFFA03B0BDE8F08F40462146AD
:10056000F9E7001B61EB0201001C41F58013001844
:100570005B412018A2F5001747EB030140EAD57054
:10058000B6196D4111E06D084FEA360645EAC075AF
:100590004FEA0752001B61EB0201001C41F580117C
:1005A00049084FEA30000019514132462B4603B04A
:1005B000BDE8F04F00F08FBA009801224000002300
:1005C000D0EB020263EBE073009821464FEAE0743F
:1005D000B8EB000061EB0401E9E783F000435BE75F
:1005E00081F0004158E72DE9FE4F81EA030404F051
:1005F000004421F0004100944FF0000B23F0004331
:1006000050EA01045ED052EA03045BD0C3F30A54FB
:10061000C1F30A552C44A4F2F3340194A0FB025414
:10062000C1F3130141F48011C3F3130343F48013A6
:1006300001FB024400FB034E840A970A44EA8154FA
:1006400047EA8357A4FB076802958D0A05FB0785D7
:100650004FEA932C04FB0C542705029D4FEA0658E1
:1006600047EA1637B5EB08056EEB070C870E920EBE
:1006700047EA811742EA8312A7FB0201B6EB0B019E
:1006800064EB00042B0D43EA0C335E1844EB1C5062
:10069000DA465146E7FB0201C5F313044FEA0B3378
:1006A00043EA14534FEA0432019C43EA0603A4F1DF
:1006B0000C040294009CCDE900B400F01BFA03B0D6
:1006C000BDE8F08F00200146F9E72DE9F04D81EA01
:1006D000030404F0004B21F0004514464FF0000ADB
:1006E00023F0004150EA050220D054EA01021DD057
:1006F000C5F30A570246C5F31303C1F31300C1F350
:100700000A5640F4801543F48013A7EB0608101B2B
:10071000D64608F2FD3873EB050002D308F1010854
:1007200001E092185B41B8F1000F03DA00200146A6
:10073000BDE8F08D00204FF48011064684460EE09F
:10074000171B73EB050705D3121B63EB0503064369
:100750004CEA010C49084FEA300092185B4150EA1C
:100760000107EDD152EA030012D082EA040083EAC5
:100770000501084305D0101BAB4106D2012200231E
:1007800006E000224FF0004302E06FF00102531038
:100790001AEB06004CEB085110EB0A0041EB0B0181
:1007A000BDE8F04D00F097B90EB5C10F80EAE070DA
:1007B0000844CA07002140F233438DE80E000A4680
:1007C0000B4600F097F903B000BD0EB540F233417F
:1007D00002910021CDE900110A460B4600F08AF98A
:1007E00003B000BD70B5C1F30A5201F0004500240A
:1007F000C1F3130140F2FF3341F480119A4201DA50
:10080000002070BD40F233439A42A2F2334203DC2F
:10081000524200F0C5F800E090402C43F1D0404235
:1008200070BD00F0004230F000400AD0C10D01F56B
:100830006071C0F3160042EA0151C208400711433B
:10084000704700200146704730B5041E71F1000466
:1008500004DB4FF00044404264EB0101141E73F1CD
:10086000000405DB1C464FF00043524263EB0403D7
:100870008B4208BF824230BD30B5041E71F10004C6
:1008800004DB4FF00044404264EB0101141E73F19D
:10089000000405DB1C464FF00043524263EB0403A7
:1008A000994208BF904230BD01F0004330B421F0BE
:1008B000004150EA010206D00A0DA2F56072C1F3B0
:1008C0001301002A02DC30BC00207047440F44EAC8
:1008D000C104C100E01830BC00EBC25000F0C4B845
:1008E000002801DBC0F10040002901DBC1F100411B
:1008F0008142704730B50B4601460020202201247A
:1009000009E021FA02F59D4205D303FA02F5491BDD
:1009100004FA02F52844151EA2F10102F1DC30BDF3
:100920002DE9F05F0546002092469B468846064624
:10093000814640241BE0284641464746224600F0B7
:100940002FF853465A46C01A914110D31146184603
:10095000224600F016F82D1A67EB01084F46224692
:100960000120002100F00DF817EB00094E41201E78
:10097000A4F10104DFDC484631462A464346BDE87F
:10098000F09F202A04DB203A00FA02F10020704791
:100990009140C2F1200320FA03F3194390407047BD
:1009A000202A04DB203A21FA02F00021704721FAC4
:1009B00002F3D040C2F1200291400843194670472B
:1009C000202A06DBCB17203A41FA02F043EAE07313
:1009D00006E041FA02F3D040C2F120029140084300
:1009E000194670473A2800D2303820F02002412AB8
:1009F00001D3A2F13700884201D34FF0FF30704796
:100A0000026811441378016018467047D1600449A8
:100A100051610449116200211161114600F000B9D1
:100A2000010A0008150C0008426842B1016811F87B
:100A3000013B23B1521EC0E9001218467047012144
:100A4000C160881E704742685AB1C368016843B9E3
:100A500083688B4205D0491E521CC0E90012002059
:100A600070474FF0FF3070470029A8BF7047401C07
:100A7000490008BF20F00100704710B4B0FA80FCB4
:100A800000FA0CF050EA010404BF10BC704749B1F1
:100A9000CCF1200421FA04F411FA0CF118BF012161
:100AA00021430843A3EB0C01CB1D4FEA00614FEA41
:100AB000102042BF002010BC704700EBC350104410
:100AC0000029A4BF10BC7047401C490008BF20F09B
:100AD000010010BC704710B5141E73F1000408DA51
:100AE000401C41F1000192185B411A4301D120F0F2
:100AF000010010BD2DE9F04D92469B4611B1B1FAAF
:100B000081F202E0B0FA80F220329046FFF739FF1E
:100B100004460F4640EA0A0041EA0B0153465A4692
:100B2000084313D0114653EA010019D0C8F140021E
:100B30005046FFF735FF05460E4650465946424699
:100B4000FFF71FFF084305D0012004E02046394687
:100B5000BDE8F08D0020054346EAE0762C4337439C
:100B60000A986305E40AA0EB08000022FD0A44EAA3
:100B700047540A3002D500200146E9E70105101963
:100B80006941DDE9084500196941BDE8F04DA2E77A
:100B900070B521F0004303430CD0C1F30A55002483
:100BA000D5EB040564EB0403D617AD1AB34102DBA1
:100BB0000020014670BD201841EB025170BDC1F309
:100BC0000A52C1F3130140F2FF3341F480119A42FB
:100BD00002DA00200146704740F233439A42A2F203
:100BE000334202DC5242FFF7DBBEFFF7CABE000011
:100BF000064C074D06E0E06840F0010394E807006A
:100C000098471034AC42F6D3FFF774FA509B0008B3
:100C1000709B0008C0B24FF4F05100F0EBB9000037
:100C20002DE9F34F8BB04FF0000801F10C000C469A
:100C30004FF0010B46460DF1080A0190626901214F
:100C400001989047051E2DD0252D2CD0216A88476C
:100C5000C0B16269012101989047216A8847002844
:100C6000F7D1411E62690198904700E0761CA169A6
:100C70000B988847216A88470028F7D1E1690B98CB
:100C80008847DBE7A1690B9888470746A84201D14E
:100C9000761CD3E7E1690B9888477F1C02D1B8F135
:100CA000000F6FD047E1002762693D463946019841
:100CB00090472A2804D162690121019890470125B3
:100CC000DFF888926269012101989047A0F1300114
:100CD0000A290AD24F45E5DC07EB870100EB410703
:100CE000303FDFD445F01005ECE7E90601D46FF0A2
:100CF00000476C280AD04C2814D0682815D06A28E0
:100D00000DD074281CD07A281AD01DE06269012108
:100D1000019890476C2802D045F0040514E045F096
:100D200002050DE045F020050AE062690121019805
:100D30009047682802D045F0080505E045F40065B5
:100D40006269012101989047C4E9015765283DD0A7
:100D500019DC58287AD00CDC452837D004DC25284B
:100D600026D0412831D131E046282FD047282CD138
:100D70002CE05B2877D0612828D063287CD06428B9
:100D800023D15AE0D1E06F2848D008DC66281DD076
:100D900067281BD0692821D06E2816D127E070283B
:100DA00045D0732868D0752847D078280DD14DE0FC
:100DB000A1690B988847054625283FF469AFE1698A
:100DC0000B9888476D1C3FF46AAFB4E023466A462F
:100DD0006FF001000B99AFF300809FE045F04000F9
:100DE0006060A80723464FF0000236D43EE0E807D3
:100DF0007FF447AF2068011D21600068290501D5F7
:100E000006701BE7290701D5068017E7A90703D558
:100E1000F117C0E9006111E706600FE745F04000F7
:100E20006060A80723464FF0080216D41EE040F683
:100E30000E0125EA0100606016E045F040006060A8
:100E4000A80723464FF00A0207D40FE045F0400000
:100E50006060A80708D5234610226FF001000B99A7
:100E6000AFF300805AE007E0234610226FF0010044
:100E70000B99FFF7FBF951E04FF000094F464B4645
:100E8000632802D05B2807D041E02079C00601D456
:100E90000120A06001273AE0626901210198904792
:100EA0005E2805D14FF001096269494601989047D3
:100EB000216939B900210A46534643F82120491CCB
:100EC0000829FADBB0B3216969B9C11700EBD16217
:100ED00053110AEB830122F01F02821A01200B68D2
:100EE000904003430B6062690121019890475D289F
:100EF000E8D1B9F1000F09D00020514651F8202067
:100F0000D24341F82020401C0828F7DB02AB2246E0
:100F100000976FF001000B99FFF74EFA00280CDAEA
:100F2000401C08D1BBF1000F05D04FF0FF300DB0D1
:100F3000BDE8F08FFFE74046F9E7E90701D108F186
:100F4000010806444FF0000B78E60000CCCCCC0C36
:100F50002DE9F04D00231A461B1A8A4103DB0020BD
:100F60000146BDE8F08DC1F30A52C1F3130141F40B
:100F700080154FF0000BD10702D100186D41521EB1
:100F80000027044640F2FF11384601EB620A3E4654
:100F90008046024600204FF48011FFF701FDC21980
:100FA0007141BB1846EB0100B4EB030C75EB000C70
:100FB00004D3E41A65EB000517460E46241908F120
:100FC00001006D4180463428E3DDF91946EB060047
:100FD000091BA84103D24FF0FF32134601E0002263
:100FE00013461BEB070046EB0A51BDE8F04DFFF737
:100FF00072BD00007F2801D9002208E0064A02EBFA
:101000005002C007127800D1120902F00F0201202D
:101010009040084070470000C89A00080146BE2072
:101020004843B42290FBF2F0323080B270470000A7
:101030002DE9F047074689469046DDF820C000219B
:101040000022002400260025002004460246014616
:1010500045E0002601E0491C761C614502D2585C3F
:101060002028F8D0614500D13BE0ACEB010002281C
:1010700007D3585C0D2804D1481C185C0A2800D1FD
:101080002CE0585C0A2800D128E01EB16FF02B003C
:10109000BDE8F087585C3D2806D1601C0446022854
:1010A00002D96FF02B00F3E7585C7F2806DC585C10
:1010B000DFF8E4A01AF800007F2802D16FF02B00BF
:1010C000E6E7585CDFF8D0A01AF80000402803DA01
:1010D00014B16FF02B00DBE7521C00BF491C6145C7
:1010E000B7D300BF1AB90020C8F80000D0E7D00875
:1010F00000EB40004FEA400A02F0070000EB40001E
:101100004000C01D0AEBD002121B0FB1914504D262
:10111000C8F800206FF02900BAE703240020064633
:1011200002463D4631E018780D2805D018780A2887
:1011300002D01878202800D125E01878DFF858A0D0
:101140001AF80000402801D1012000E00020241AF4
:101150001878DFF844A01AF8000066F39F100646DE
:10116000501C024604280DD1002214B1300C05F8A1
:10117000010B012C02D9300A05F8010B022C01D910
:1011800005F8016B00BF491E5B1C0029CBD1E81B91
:10119000C8F8000000207BE7AC9900082DE9F04F6B
:1011A00007468946099C00250026AC46A846AA4663
:1011B00000211CB900201060BDE8F08F0320B4FBB3
:1011C000F0F04FF0030BB4FBFBFE0BFB1E4BBBF12F
:1011D000000F02D04FF0010B01E04FF0000B00EBCD
:1011E0000B06B6F1804F05D34FF0FF3010606FF063
:1011F0002900E1E7B600701C814500D327B9701CB7
:1012000010606FF02900D7E70320B4FBF0F000EB8B
:1012100040060025394629E013F801CB13F8018B6D
:1012200013F801AB2D484FEA9C0B10F80B0001F8A6
:10123000010B4FEA0C1000EB281000F03F00DFF824
:101240009CB01BF8000001F8010B4FEA880000EB8E
:10125000AA1000F03F001BF8000001F8010B0AF093
:101260003F001BF8000001F8010BED1CB542D3D381
:10127000A5422DD213F801CB681CA04202D213F86C
:10128000010B00E0002080461448CCF3850B10F8D9
:101290000B0001F8010B4FEA0C1000EB281000F0D6
:1012A0003F00DFF838B01BF8000001F8010B681CA4
:1012B000A04207D23F2000EA88001BF8000001F896
:1012C000010B02E03D2001F8010B3D2001F8010B6C
:1012D000C81B10600020087000BF6DE76C99000803
:1012E00000BFFEE77047000010B580210348FEF7FD
:1012F0003AFF00200249088010BD00009000002045
:101300004C00002070B50546002400BF00F004FB2F
:1013100080B90DA10E48FEF73DFF044654B13A21B5
:101320002046FEF749FF044614B1641C204670BDF8
:101330000020FCE7052003F085FF281EA5F1010130
:101340008DB2E3D100BFF2E74950442C0000000009
:101350009000002070B5FFF7C7FF2CA1324803F0C2
:101360002FF832A132A000F089FA40B13AA12E48FC
:1013700003F026F800203E490877012070BD4FF4A5
:10138000FA7003F05FFFFFF7AFFF3AA1264803F0C2
:1013900017F811223DA1424803F036F8322527E024
:1013A00000F0BAFA08BB3FA14248FEF7F3FE04463C
:1013B000D4B10D3400E0641C20782028FBD02078C4
:1013C0000D28F8D020780A28F5D0204602F0D8F968
:1013D000FFF78AFF2648007F30B125480068B0F546
:1013E000FA6F01DB0020C9E700BF642003F02AFF89
:1013F000281EA5F10101CDB2D2D12FA10A4802F0D9
:10140000DFFF00201A4908770120B7E7536574749D
:10141000696E6720534E545020636F6E6669672E65
:101420002E2E0D0A00000000003801404F4B000036
:1014300041542B434950534E54504346473D312C61
:10144000382C226E7470312E616C6979756E2E6342
:101450006F6D220D0A000000534E545020636F6ED2
:10146000666967206661696C65640D0A00000000AA
:10147000100100205175657279696E6720534E54D2
:10148000502074696D652E2E2E0D0A0041542B4399
:101490004950534E545054494D453F0D0A000000E9
:1014A000004400402B434950534E545054494D453D
:1014B0003A0000009000002047657420534E5450BD
:1014C0002074696D65206661696C65640D0A0000B1
:1014D00000B589B0FFF708FF62A1644802F070FF11
:1014E000022363A21946002001F0DEFB03E04FF463
:1014F000FA7003F0A7FE62A162A000F0BFF9002815
:10150000F5D162A1594802F05BFF022362A219469D
:10151000002001F0C9FB03E04FF4FA7003F092FEE3
:1015200057A161A000F0AAF90028F5D161A14F48A8
:1015300002F046FF022362A21946002001F0B4FB2C
:1015400003E04FF4FA7003F07DFE4DA160A000F0BF
:1015500095F90028F5D162A1444802F031FF022339
:1015600063A21946002001F09FFB03E04FF4FA70DC
:1015700003F068FE42A163A000F080F90028F5D1D5
:1015800064A13A4802F01CFF022365A2194600201C
:1015900001F08AFB03E04FF4FA7003F053FE65A1FB
:1015A00066A000F06BF90028F5D170A12F4802F079
:1015B00007FF022371A21946002001F075FBFFF717
:1015C000C9FE002823D171484069704909696F4AF2
:1015D000D2686E4B9B68CDE90032CDE902106B48B2
:1015E00043686BA10268214802F0EAFE674840693F
:1015F00000906648036971A1C26804A802F046FF22
:10160000022304AA0421002001F04EFB09E06FA18F
:10161000164802F0D5FE022373A20421002001F037
:1016200043FB74A1114802F0CBFE022375A21946B8
:10163000002001F039FB03E04FF4FA7003F002FEE2
:1016400075A177A000F01AF90028F5D180A107480C
:1016500002F0B6FE022384A21946002001F024FB0A
:1016600009B000BD312E2041540D0A000038014060
:10167000312E204154202020202020202000000056
:101680004F4B000041540D0A00000000322E204153
:10169000542B5253540D0A00322E2041542B5253D6
:1016A000542020202020200041542B5253540D0A56
:1016B00000000000332E2043574D4F44450D0A00D3
:1016C000332E2043574D4F4445202020200000005A
:1016D00041542B43574D4F44453D310D0A00000006
:1016E000342E2041542B4357444843500D0A0000E8
:1016F000342E2041542B435744484350202020206F
:101700002000000041542B4357444843503D312CA6
:10171000310D0A00352E2043574A41500D0A000072
:10172000352E2043574A41502020202020202020C1
:1017300000000000474F54204950000041542B4303
:10174000574A41503D224445534B544F502D4D4A2A
:101750005652434E332038333931222C22544553CC
:101760005438383838220D0A00000000362E204E3A
:1017700054502054696D650D0A000000362E204E2D
:1017800054502054696D6520202020001001002055
:101790004E54502054696D653A20253034642D250F
:1017A0003032642D2530326420253032643A2530C1
:1017B00032643A253032640D0A000000253032646C
:1017C0003A253032643A2530326400004661696C53
:1017D000656420746F20676574204E5450207469CE
:1017E0006D650D0A000000004E5450204661696C82
:1017F00065640000372E2043495053544152540D24
:101800000A000000372E20434950535441525420BF
:101810002020202000000000434F4E4E454354003E
:1018200041542B43495053544152543D2254435048
:10183000222C226D717474732E6865636C6F7564ED
:10184000732E636F6D222C313838330D0A0000007F
:10185000382E204553503832363620496E69742070
:101860004F4B0D0A000000004553503832363620E9
:10187000496E6974204F4B20000000002DE9F041B3
:1018800004460D46C8262046FEF7A0FC87B23A461D
:1018900021460D4802F0B8FD0FE000F03DF848B9D0
:1018A00029460A48FEF776FC20B1FFF71DFD00200F
:1018B000BDE8F0810A2003F0C5FC301EA6F101014D
:1018C000CEB2EAD10120F3E70044004090000020AE
:1018D00030B589B004460D46FFF706FD2A4608A13B
:1018E00001A802F0D3FD0AA101A8FFF7C7FF20B9A4
:1018F0002A462146074802F087FD09B030BD0000A6
:1019000041542B43495053454E443D25640D0A0034
:101910003E000000004400400A48008808B9012049
:1019200070470848008808490988884203D1002088
:1019300004490880F4E7034800880349088001202F
:10194000EEE700004C0000204E00002070472DE91B
:10195000F041024600250026002000230024002735
:1019600091F803C00CF00F0591F803C00CF0100CB7
:10197000BCF1000F03D091F802C04CEA050591F8C4
:1019800000C0BCF1000F31D0146800202BE04FF0F4
:10199000010C0CFA00F3B1F800C00CEA03069E42F9
:1019A00020D183004FF00F0C0CFA03F7BC4305FA6B
:1019B00003FC4CEA040491F803C0BCF1280F06D1E3
:1019C0004FF0010C0CFA00FCC2F814C00AE091F8C8
:1019D00003C0BCF1480F05D14FF0010C0CFA00FC1C
:1019E000C2F810C0401C0828D1D31460B1F800C060
:1019F000BCF1FF0F34DD546800202EE000F1080C2C
:101A00004FF0010808FA0CF3B1F800C00CEA030625
:101A10009E4221D183004FF00F0C0CFA03F7BC4318
:101A200005FA03FC4CEA040491F803C0BCF1280F4A
:101A300005D100F1080C08FA0CF8C2F8148091F8EE
:101A400003C0BCF1480F07D100F1080C4FF00108AA
:101A500008FA0CF8C2F81080401C0828CED3546055
:101A6000BDE8F081F0B50A460023002400210025DE
:101A700000F00046B6F1004F02D11D4EF16901E0C1
:101A80001B4E7168C0F3034583B200F44016B6F5EF
:101A9000401F08D121F07061154E766826F07066FF
:101AA000134F7E6012E000F48016B6F5801F06D159
:101AB000032606FA05F4A14341F0706106E0460DE5
:101AC000360103FA06F6B14341F0706122B1460DCA
:101AD000360103FA06F6314300F00046B6F1004F36
:101AE00002D1034EF16101E0014E7160F0BD0000D2
:101AF000000001400246002093680B400BB101201A
:101B000000E000207047416170470161704700BFED
:101B1000FEE7000010B54FF4A06001F029F803F0D3
:101B200041FB4FF4E13002F09DFB4FF4E13002F055
:101B3000F1FB01F049F801F025F800F0F3FA01207B
:101B400003F0F9F903F056FD64224FF4FA6140F214
:101B5000CF2006F027FA4FF47A7003F073FB0223CC
:101B600004A20021084601F09FF805A1094802F0EF
:101B700027FC10BD496F5420496E69742E2E2E002B
:101B8000486172647761726520696E6974204F4B99
:101B90000D0A00000038014070B5024600240025FF
:101BA00000230020958A138B1B0445EA030626F0C8
:101BB0007F4404EA01068E4201D1012000E00020AA
:101BC00070BD21B1028842F00102028004E0028867
:101BD0004FF6FE731A4002807047000000B585B0D2
:101BE0000121480501F07EFE0121082001F09AFE46
:101BF0000121084601F096FE01210220FFF732FF85
:101C00001C208DF813004FF44070ADF81000032035
:101C10008DF8120004A91148FFF799FE104800F052
:101C200023F84FF48060ADF80A000001ADF80C0015
:101C30000C4800904BF6FF70ADF806000020ADF8A0
:101C400004003020ADF808006946054800F05EF851
:101C500001210348FFF7B5FF05B000BD000C0140AE
:101C600000540040801A060010B504460B48844218
:101C700009D10121480501F045FE00214FF4001073
:101C800001F040FE08E00121880501F03BFE002143
:101C90004FF4800001F036FE10BD000000540040FB
:101CA00021B1028842F48072028004E002884FF67B
:101CB000FF631A400280704721B1028842F400722B
:101CC000028004E002884FF6FF531A4002807047FA
:101CD0000CB50246002000230193009300920B0FE5
:101CE000019321F07F41019B1BB1009B14330093B2
:101CF00003E0090C009B18330093009B1B680B400A
:101D00000BB1012000E000200CBD00002DE9F043E4
:101D100085B004460D460026B1460427DFF8CC8086
:101D2000A6884FF6C0700640684601F00BFEDDF84D
:101D300008802F48B8FBF0F01FFA80F946EA090640
:101D4000A68020884FF6FE71084020800026294991
:101D5000286888420CD828684000B8FBF0F087B2A9
:101D6000042F00DA04273E4309F10100208427E014
:101D7000E8884BF6FF71884206D1286800EB4000E6
:101D8000B8FBF0F087B209E0286800EBC00101EB76
:101D90000010B8FBF0F087B247F48047C7F30B00A0
:101DA00008B947F0010747F4004006434FF4967026
:101DB00009FB00F04FF47A7190FBF1F0401C208495
:101DC000A683208840F00100208026884FF6F53059
:101DD0000640A8886989084306432680A88929897E
:101DE0000843208105B0BDE8F083000000127A00AE
:101DF00040420F00A086010012B141F0010102E053
:101E00004FF6FE731940018270470182704700004F
:101E100070B504460D4600BF4FF400311C48FFF773
:101E200057FF0028F8D101211948FFF739FF00BFFB
:101E300018491748FFF7B0FE0028F9D00022782192
:101E40001348FFF7D9FF00BF13491148FFF7A4FE5D
:101E50000028F9D021460E48FFF7D7FF00BF0E49F2
:101E6000891E0B48FFF798FE0028F8D0294608483D
:101E7000FFF7CBFF00BF0849891C0548FFF78CFE20
:101E80000028F8D001210248FFF716FF70BD0000BE
:101E900000540040010003008200070010B500203C
:101EA0000F4908600F48006820F470400D49086031
:101EB0000846006840F44050086000200A49C1F814
:101EC000AC01022003F09EF90120054908600220C0
:101ED00003F098F900200449C1F8A80110BD0000E2
:101EE000A8812142040C01400080214210B500204D
:101EF0000F4908600F48006820F470400D490860E1
:101F00000846006840F44050086001200A49C1F8C2
:101F1000AC01022003F076F9012005490860022097
:101F200003F070F900200449C1F8A80110BD0000B9
:101F3000A8812142040C01400080214270B5054671
:101F400000241748006820F47040154908600846CE
:101F5000006840F400400860002616E000201149A7
:101F60000860022003F04EF901200F49C1F8A801D2
:101F70006006040E0B487C38006808B1601CC4B2CF
:101F8000012003F03FF9701CC6B2082EE6DB15B93C
:101F9000FFF7ACFF01E0FFF781FF204670BD0000B6
:101FA000040C0140A88121420080214270B5044602
:101FB0001848006820F47040164908600846006818
:101FC00040F44050086000201349086000251EE0DE
:101FD000E00920B101201049091D086003E000203C
:101FE0000D49091D08606006040E022003F00AF97D
:101FF000012009490860022003F004F90020074984
:10200000C1F8A801022003F0FDF8681CC5B2082D34
:10201000DEDB70BD040C0140A8812142008021421A
:1020200010B50F48006820F470400D49086008465C
:10203000006840F44050086001200A4908600A49DD
:10204000C1F8A801042003F0DDF80020054908606C
:10205000042003F0D7F800200349C1F8A80110BDFF
:10206000040C0140AC8121420080214210B511488E
:10207000006820F470400F4908600846006840F48A
:102080004050086000200C4908600C49C1F8AC01C0
:10209000042003F0B7F8012007490860042003F08A
:1020A000B1F801200549C1F8AC01042003F0AAF8F9
:1020B00010BD0000040C0140A88121420080214293
:1020C00010B500241448006820F4704012490860DC
:1020D0000846006840F40040086001200F4908608D
:1020E00003F090F801200E49C1F8A80103F08AF826
:1020F00007E0601CC4B2FA2C03DDFFF7B7FF012034
:1021000010BD0648803800680028F2D10349091F35
:10211000086000BFF4E70000040C0140AC812142DC
:102120000080214208B50121082001F0FBFB4FF49B
:102130004060ADF8000010208DF8030003208DF8FA
:10214000020069460448FFF702FC012001F04CFD43
:10215000B42003F077F808BD000C014010B5044628
:102160000E492046FEF7BCFB01D2002010BD0C49F1
:102170002046FEF7B5FB01D21E20F7E709492046AD
:10218000FEF7AEFB01D25A20F0E707492046FEF7E2
:10219000A7FB01D29620E9E7B420E7E70000484218
:1021A0000000C842000048430000FA4310B504464E
:1021B000207B012802D1206803F0F4F80020206081
:1021C0006060A060207310BD0246002301230DE073
:1021D00002F07F000870D2092AB1087840F0800030
:1021E0000870491C01E0184670475B1C042BEFDDAA
:1021F0004FF0FF30F8E770B504460E460025206822
:1022000098B901202073304603F0FAFE2060206860
:10221000E0B100206060A66003E00020216848551E
:102220006D1CA068A842F8D810E00220207303E0DB
:102230000020216848556D1CA068A842F8D80020ED
:102240006060A068B04201D20020206070BD000034
:102250002DE9FF4F83B082468B469146159C0025A1
:10226000002002900F2701904846FDF7AFFF0FFABC
:1022700080F8B9F1000F03D1012007B0BDE8F08F5D
:1022800008F10200384487B2109808B145F0020501
:10229000129878B145F004051298FDF797FFC0B287
:1022A00002901398FDF792FF01460298001D084422
:1022B000384487B2119820B1012804D0022808D1EF
:1022C00004E000BF07E045F00C0504E045F014050C
:1022D00001E00220D1E700BF149808B145F02405C1
:1022E000BAF1000F02D0BBF1000F01D10320C4E707
:1022F00045F0C0055046FDF769FF06465846FDF714
:1023000065FF3044001D384487B239462046FFF748
:1023100072FF206808B90420AFE739462068FDF74E
:1023200022FF10216268501C606020688154D4E94B
:102330000023D118781FFFF747FF00B201900198E2
:10234000002804DA2046FFF731FF052095E7616891
:1023500001980844606000216268501C6060206839
:10236000815404216268501C6060206881544D21B2
:102370006268501C60602068815451216268501C62
:1023800060602068815454216268501C606020683D
:1023900081546268501C6060206881540421626826
:1023A000501C6060206881546168481C606020682F
:1023B00045540698010A6268501C60602068815488
:1023C0000698C1B26268501C606020688154C8F3EE
:1023D00007216268501C6060206881546268501C4C
:1023E0006060206800F80280D4E900128818424634
:1023F0004946FDF7F2FE60684044606005F0040065
:10240000B8B30026139808B938A013901298FDF7B6
:10241000DDFE86B2310A6268501C6060206881541B
:102420006268501C606020688654D4E900128818E5
:1024300032461299FDF7D1FE60683044606013980F
:10244000FDF7C4FE86B2310A6268501C60602068E5
:1024500081546268501C606020688654D4E9001280
:10246000881832461399FDF7B8FE60683044606002
:1024700000BF05F08000C8B15046FDF7A7FE86B248
:10248000310A6268501C6060206881546268501C88
:10249000606020688654D4E900128818324651469C
:1024A000FDF79BFE60683044606000BF05F04000AF
:1024B000C8B15846FDF78AFE86B2310A6268501CE0
:1024C0006060206881546268501C60602068865497
:1024D000D4E90012881832465946FDF77EFE60683E
:1024E0003044606000BF0020C7E60000000000002C
:1024F0002DE9FF4F83B0834617469946139C00256C
:1025000000260020029001908046BBF1000F03D10D
:10251000012007B0BDE8F08F00260AE00498805D36
:10252000232803D00498805D2B2801D10220F0E7F6
:10253000761C0498805D0028F0D148F0300811988E
:1025400008B148F0010806EB0900851C109820B17D
:10255000012804D002280AD105E000BF09E048F0B4
:102560000208AD1C05E048F00408AD1C01E00320A2
:10257000CFE700BF8FB33878022821D14FF0000A8F
:1025800000BF50460AF1010A385C7D28F9D1AAF152
:10259000030A0AF1070002900298A9EB000AE81C5E
:1025A000A0EB0A012046FFF726FE206808B90420A8
:1025B000AFE7EA1CA2EB0A012068FDF7D4FD19E0A1
:1025C000691D2046FFF717FE206808B90420A0E720
:1025D000691D2068FDF7C7FD0CE0FFE7691D204677
:1025E000FFF709FE206808B9042092E7691D2068FA
:1025F000FDF7B9FD6168481C6060206800F8018043
:10260000D4E9000281182846FFF7DEFD0190019809
:10261000002804DA2046FFF7C9FD052079E7616844
:10262000019808446060C6F307216268501C60602E
:10263000206881546268501C606020688654D4E928
:102640000012881832460499FDF7C7FD60683044CF
:102650006060109860B14FEA1B216268501C606096
:10266000206881546268501C6060206800F802B0E5
:10267000C7B1387802280BD1D4E90012881839463E
:10268000029AFDF757FD616802980844606009E00E
:10269000D4E9001288184A463946FDF74BFD6068B8
:1026A00048446060002034E72DE9F04190B00446D2
:1026B0000D4616469846169F2B4622460BA104A8A7
:1026C00001F0E4FE01200021CDE9000133460A4675
:1026D00004A9CDE902070A20FFF70AFF18B101207B
:1026E00010B0BDE8F0810020FAE700002473797390
:1026F0002F25732F25732F7468696E672F70726F83
:1027000070657274792F706F737400002DE9FF5F2C
:102710008046174699460E9C0026B246B3460025D1
:10272000B8F1000F03D1012004B0BDE8F09F0BE029
:1027300057F8250008B90220F6E757F82500FDF7FD
:1027400045FD0644681CC5B24D45F1DB09EB490067
:10275000801C00EB060A0AF105012046FFF74BFD3D
:10276000206808B90320DFE782216268501C60609E
:1027700020688154D4E9000281185046FFF724FDF7
:102780000FFA80FBBBF1000F04DA2046FFF70EFDC5
:102790000420C9E76068584460604FEA1821626805
:1027A000501C6060206881546268501C6060206822
:1027B00000F80280002524E057F82500FDF706FD0B
:1027C0000646C6F307216268501C60602068815489
:1027D0006268501C606020688654D4E90023D018D9
:1027E00057F825103246FDF7F8FC60683044606009
:1027F0000198C1B26268501C606020688154681CF6
:10280000C5B24D45D8DB00208EE7F0B504460D4635
:102810002646012300201060002114E0775C07F0B9
:102820007F07106807FB03001060705C00F08000F9
:1028300008B9481CF0BDDB01B3F5001F02D36FF0EF
:102840000100F7E7491CA942E8DB4FF0FF30F1E750
:1028500001464878022801D001207047887810B1DD
:102860008878012801D1C878F7E7FF20F5E7000054
:102870002DE9FC5F81460D4614461E46DDE90C8BB2
:1028800099F8000000F00F0A002001900AF00800FB
:102890000090CAF341008BF8000001AA042109F15D
:1028A0000100FFF7B2FF4844471C0198022802D3F9
:1028B0000AF0010010B1FF20BDE8FC9F787839785C
:1028C00040EA012020802088801C0199884201D99B
:1028D000FF20F1E754A1B81CFDF75CFC08B10F2004
:1028E000EAE79BF8000020B101283DD0022877D10B
:1028F0003BE0009808B1FF20DEE72188481C03F088
:102900007FFB2860286808B9FF20D5E72288511C82
:102910002868FDF728FC2288B91C2868FDF70AFC06
:102920000198801E2188401AA8F80000B8F800100D
:10293000481C03F065FB3060306820B9286802F05D
:1029400031FDFF20B8E7B8F80020511C3068FDF7D2
:102950000AFCB8F80020B4F800C0BB1C0CEB030163
:102960003068FDF7E7FB4FE000BF2088801C01992D
:10297000884201D9FF209FE72088C01C395C20884D
:10298000801C385C41EA00210E9801800E9808B93D
:10299000FF2091E72188481C03F032FB286028685B
:1029A00008B9FF2088E72288511C2868FDF7DBFB67
:1029B0002288B91C2868FDF7BDFB0198001F2188FB
:1029C000401AA8F80000B8F80010481C03F018FBE3
:1029D0003060306828B9286802F0E4FCFF206BE71B
:1029E00010E0B8F80020511C3068FDF7BCFBB8F8C7
:1029F0000020B4F800C03B1D0CEB03013068FDF76C
:102A000099FB01E0FF2057E700BF2B212846FDF787
:102A1000D3FB20B923212846FDF7CEFB08B1FF20C8
:102A20004AE7002048E70000246372657100000057
:102A300001464878022801D001207047887820B9E3
:102A4000C8780A2801D10020F7E70120F5E7000047
:102A5000F8B50446FF2720780511012D01DB0E2D66
:102A600001DD3846F8BD032D24D1002000906A46D0
:102A70000421601CFFF7C9FE2044461C0098022870
:102A800003D3207800F0010008B1FF20EAE7707856
:102A9000317840EA0120801C0099884201D9FF204A
:102AA000E0E706A1B01CFDF775FB08B10F2700E0B9
:102AB000032700E02F463846D4E700002463726500
:102AC000710000000146FF208A78A2B9CA78142A52
:102AD00011D10A7932B1012A05D0022A04D0802A04
:102AE00006D103E000BF00BF002003E0012001E0A9
:102AF000022000BF00BF704700BFFEE77047000024
:102B000070B5002100230F22C47804B3154C24684B
:102B100004F4E064C4F5E064210AC1F10403CA408E
:102B2000447804FA03F184781440214309010E4CDF
:102B30000678A155047804F01F050124AC400578FF
:102B40006D11AD0005F1E025C5F8004109E00478FC
:102B500004F01F050124AC40044D0678761145F8B9
:102B6000264070BD0CED00E000E400E080E100E0F4
:102B700002490143024A1160704700000000FA0553
:102B80000CED00E010B5002000F001F810BD70B5AC
:102B90000646002415E004F1B001C8B201F04DFC76
:102BA000002001F04AFC102001F047FC002504E061
:102BB000304601F049FC681CC5B2802DF8DB601C72
:102BC000C4B2082CE7DB70BD10B5FFF707F864202E
:102BD00002F038FBAE2001F030FC202001F02DFC8B
:102BE000102001F02AFCB02001F027FCC82001F0E1
:102BF00024FC002001F021FC102001F01EFC4020EC
:102C000001F01BFC812001F018FCFF2001F015FCF5
:102C1000A12001F012FCA62001F00FFCA82001F079
:102C20000CFC3F2001F009FCA42001F006FCD3209D
:102C300001F003FC002001F000FCD52001F0FDFBB9
:102C4000F02001F0FAFBD92001F0F7FB222001F07F
:102C5000F4FBDA2001F0F1FB122001F0EEFBDB20A7
:102C600001F0EBFB202001F0E8FB8D2001F0E5FBFB
:102C7000142001F0E2FBAF2001F0DFFB10BD70B5C6
:102C800004460D4605F1B001C8B201F0D6FB102193
:102C900041EA141001F0D1FB04F00F0141F00100F2
:102CA00001F0CBFB70BD00002DE9F04706468946D8
:102CB00017469A464FF0000800240025BAF1010F8C
:102CC00003D0BAF1020F5ED125E020E0785D203814
:102CD00000F0FF087E2E04DD002609F1010000F05F
:102CE000FF0949463046FFF7CAFF002409E008EB18
:102CF0004801264A02EB4101085D01F0A5FB601C7A
:102D0000C4B2062CF3DBB01DC6B2681CC5B2785D38
:102D10000028DBD137E032E0785D203800F0FF0892
:102D2000782E04DD002609F1010000F0FF09494674
:102D30003046FFF7A4FF002407E004EB0811144A13
:102D4000505C01F081FB601CC4B2082CF5DB09F17A
:102D50000100C1B23046FFF792FF002408E004EB07
:102D6000081108310A4A505C01F06EFB601CC4B2C5
:102D7000082CF4DB06F10800C6B2681CC5B2785D09
:102D80000028C9D100BF00BFBDE8F087548000080B
:102D90007C820008F0B58BB005460026002428464A
:102DA000FDF714FAC7B20DB11C2F02DA01200BB0E7
:102DB000F0BD06E0A85D01A988550020A855701C4B
:102DC000C6B2BE42F6DB002001A9885500260024C9
:102DD00055E001A8805D2B2810D008DC202814D0F5
:102DE00023282ED0252825D026283FD130E02F2893
:102DF00012D03D2833D03F2838D114E0281923A120
:102E0000FDF7BCF9E01CC4B236E0281920A1FDF79B
:102E1000B5F9E01CC4B22FE028191EA1FDF7AEF9E8
:102E2000E01CC4B228E028191BA1FDF7A7F9E01C9B
:102E3000C4B221E0281919A1FDF7A0F9E01CC4B221
:102E40001AE0281916A1FDF799F9E01CC4B213E0A5
:102E5000281914A1FDF792F9E01CC4B20CE028195E
:102E600011A1FDF78BF9E01CC4B205E001A8805D5B
:102E70002855601CC4B200BF00BF701CC6B2BE4261
:102E8000A7DB0020285500BF91E700002532420053
:102E900025323000253246002533460025323500E4
:102EA0002532330025323600253344002DE9F04F1A
:102EB000C9B005460C4616461F460DF5A47898E89D
:102EC000000F0020489055B14CB13F48864206D3D0
:102ED0002FB1B9F1000F02D0BAF1780F03DA012057
:102EE00049B0BDE8F08F402118A8FDF73CF93846FD
:102EF000FDF76CF905903B4648AA4021009018A8C0
:102F0000FEF796F8482106A8FDF72DF9BBF1000F52
:102F100009D02EA033462FA248218DE8310006A803
:102F200001F09AFA09E029A0334630A248218DE841
:102F30001101039506A801F08FFA402128A8FDF79A
:102F400012F906A8FDF742F9059018A8FDF73EF919
:102F5000049028A8009006AA18A8DDE9041302F03E
:102F60006FFA00204890402138A8FDF7FCF828A807
:102F7000FDF72CF9059028AB48AA4021009038A80D
:102F8000FEF70CF938A8FFF705FFBBF1000F0CD0D6
:102F900038A80EA12B461DA2CDE90046CDE90210AE
:102FA0005146484601F058FA0CE038A807A12B46D4
:102FB000244ACDE901860094CDE9031051464846E4
:102FC00001F04AFA00208BE79554415D7368613146
:102FD0000000000025640A25730A70726F6475632F
:102FE00074732F25730A25730000000025640A25D9
:102FF000730A70726F64756374732F25732F646521
:1030000076696365732F25730A257300766572737D
:10301000696F6E3D2573267265733D70726F6475BE
:103020006374732525324625732665743D25642611
:103030006D6574686F643D2573267369676E3D2501
:1030400073000000089B000870B588B005460C4668
:103050000020049005900690079023462A4610A170
:10306000174801F0ADF92046FDF7B0F8064604A870
:103070000121002200923346CDE90121039022462E
:1030800029460A20FFF734FA38B9059A91B2049814
:10309000FEF71EFC04A8FFF789F808B070BD000019
:1030A0005075626C69736820546F7069633A2025AB
:1030B000732C204D73673A2025730D0A0000000021
:1030C0000038014000B595B0002011901290139087
:1030D000149003A8029010A010A313A2382100900E
:1030E00003A801F0B9F903AA17A11D4801F068F976
:1030F00011A8012302AA002100901420FFF706FB6B
:1031000038B9129A91B21198FEF7E2FB11A8FFF7B5
:103110004DF815B000BD000064310000694D696EC6
:103120003862513963360000247379732F25732F69
:1031300025732F7468696E672F70726F7065727473
:10314000792F73657400000053756273637269624E
:103150006520546F7069633A2025730D0A000000E2
:103160000038014030B5B3B000202F90309031903E
:1031700032900125A02107AA37A3CDE90032CDE97D
:10318000021036A3414A42A144A0FFF78FFE07A8D0
:103190003FA331A244A100904F4801F011F92FA89C
:1031A000002102910391CDE90410084601210B0290
:1031B00029A2CDE9001007A935A0FFF749F800289A
:1031C00042D1309A91B22F98FEF782FBFA20FEF797
:1031D00099F80446002C33D02046FFF739FC02282A
:1031E0002ED12046FFF734FB062823D2DFE800F07B
:1031F00003090E13181D39A1374801F0E1F8002525
:103200001DE03BA1344801F0DBF818E03FA1324853
:1032100001F0D6F813E046A12F4801F0D1F80EE0F6
:103220004BA12D4801F0CCF809E052A12A4801F049
:10323000C7F804E05AA1284801F0C2F800BF00BF57
:103240002FA8FEF7B3FF03E05CA1234801F0B8F814
:10325000284633B030BD000064310000613368534C
:10326000576C706154324A525A6C704F5533425603
:10327000625730324F45354264557847567A4A4A4C
:10328000626B6734556E453D0000000000CF9D74B1
:10329000694D696E38625139633600003230313819
:1032A0002D31302D333100004F6E654E45545F4453
:1032B00065764C696E6B0D0A4E414D453A2025737B
:1032C0002C0950524F49443A2025732C094B45593B
:1032D0003A25730D0A0000000038014054697073EC
:1032E0003A09C1ACBDD3B3C9B9A60D0A00000000AC
:1032F0005741524E3A09C1ACBDD3CAA7B0DCA3BAFC
:10330000D0ADD2E9B4EDCEF30D0A00005741524ED4
:103310003A09C1ACBDD3CAA7B0DCA3BAB7C7B7A836
:10332000B5C4636C69656E7469640D0A00000000C1
:103330005741524E3A09C1ACBDD3CAA7B0DCA3BABB
:10334000B7FECEF1C6F7CAA7B0DC0D0A0000000038
:103350005741524E3A09C1ACBDD3CAA7B0DCA3BA9B
:10336000D3C3BBA7C3FBBBF2C3DCC2EBB4EDCEF34C
:103370000D0A00005741524E3A09C1ACBDD3CAA74D
:10338000B0DCA3BAB7C7B7A8C1B4BDD328B1C8C809
:10339000E7746F6B656EB7C7B7A8290D0A00000008
:1033A0004552523A09C1ACBDD3CAA7B0DCA3BACECC
:1033B000B4D6AAB4EDCEF30D0A0000005741524E28
:1033C0003A094D5154545F5061636B6574436F6E9D
:1033D0006E656374204661696C65640D0A000000C7
:1033E00070B58CB0044630216846FCF7BCFE1EA1C7
:1033F0002046FCF706FF30216846FCF7B4FE204863
:103400000068FDF70EFA05462A460B461DA16846E0
:1034100001F03CF869462046FCF7B0FE30216846D2
:10342000FCF7A1FE1D4802781DA1684601F02EF8A8
:1034300069462046FCF7A2FE30216846FCF793FE61
:103440001D4802781DA1684601F020F86946204613
:10345000FCF794FE1EA12046FCF790FE2046FCF7E8
:10346000B5FEC0B20CB070BD7B226964223A223135
:103470003233222C22706172616D73223A7B00001C
:1034800008000020226C69676874223A7B2276610A
:103490006C7565223A252E30667D2C000C000020CC
:1034A00022616E676C65223A7B2276616C756522BB
:1034B0003A25647D2C00000002000020226D6F641C
:1034C00065223A7B2276616C7565223A25647D001F
:1034D0007D7D00002DE9F04389B0804600200890F2
:1034E000079006900590049081460025002600274D
:1034F000441E4046FFF7ACFA8146B9F1030F06D0EF
:10350000B9F1040F4ED0B9F1090F62D153E034483C
:1035100004A905AA08ABCDE90021029006AA07A9D3
:103520004046FFF7A5F900283BD12EA13448DDE93C
:10353000072300F045FF089801F0B4FD0546002D73
:1035400029D030A1284601F08DFD0646002E1FD05F
:103550002EA1304601F086FD0746CFB17C690CB143
:10356000012C0ED12B490C7022462BA1244800F0CF
:1035700027FF22462EA1C82000F050FA00F080F864
:1035800006E04FF0FF322CA14FF4C87000F046FA6D
:10359000284601F03BFD079801F004FF089801F070
:1035A00001FF17E04046FFF743FA18B927A1144876
:1035B00000F006FF0EE04046FFF784FA20B928A18C
:1035C0000F4800F0FDFE03E029A10D4800F0F8FED1
:1035D00000E000BF00BFFDF787FE09B0BDE8F08343
:1035E00050000020546F7069633A2025732C2050DE
:1035F00061796C6F61643A2025730D0A0000000048
:1036000000380140706172616D7300006D6F646518
:1036100000000000020000204D6F6465207570649A
:103620006174656420746F3A2025640D0A000000FF
:103630007375636365737300496E76616C696420AA
:103640006D6F64652076616C756500005075626C05
:103650006973682053656E64204F4B0D0A000000AB
:10366000537562736372696265204F4B0D0A0000E7
:10367000537562736372696265204572720D0A0048
:1036800030B5C5B000204190429043904490002452
:1036900000251EA1254800F093FE4FF4807101A87B
:1036A000FCF761FD01A8FFF79BFE0446002C2BD020
:1036B00041A8002322461EA100901EA0FEF7F4FFA1
:1036C000F0B908E001A8415D429A501C429041982F
:1036D0008154681C05B2A542F4DB01AA18A1134865
:1036E00000F06EFE429A91B24198FEF7F1F818A1EF
:1036F0000E48429A00F064FE41A8FEF757FD03E031
:1037000017A10A4800F05CFE45B030BD54697073E3
:103710003A094F6E654E65745F53656E644461741B
:10372000612D4D5154540D0A000000000038014035
:1037300064310000694D696E3862513963360000AA
:1037400053656E64204A534F4E3A2025730D0A008C
:1037500053656E642025642042797465730D0A00F8
:103760005741524E3A094544505F4E65774275665F
:10377000666572204661696C65640D0A0000000090
:1037800010B586B00446444B03F11400011F0A1F14
:10379000CDE90303CDE901210C3805AB0C323FA183
:1037A00000902046FCF746FD07286FD141A105A8EF
:1037B000FCF7F0FC18B101203749486061E03EA1F8
:1037C00005A8FCF7E7FC18B102203349486058E02F
:1037D0003AA105A8FCF7DEFC18B103202E49486089
:1037E0004FE037A105A8FCF7D5FC18B104202A4901
:1037F000486046E033A105A8FCF7CCFC18B10520D1
:10380000254948603DE030A105A8FCF7C3FC18B18C
:1038100006202149486034E02CA105A8FCF7BAFC39
:1038200018B107201C4948602BE029A105A8FCF726
:10383000B1FC18B108201849486022E025A105A86C
:10384000FCF7A8FC18B109201349486019E022A12F
:1038500005A8FCF79FFC18B10A200F49486010E04A
:103860001EA105A8FCF796FC18B10B200A49486078
:1038700007E01BA105A8FCF78DFC10B10C20064940
:10388000486001200449087703E0FFE7002002496F
:10389000087706B010BD0000100100202573202518
:1038A000732025642025643A25643A256420256424
:1038B000000000004A616E00466562004D617200C2
:1038C000417072004D6179004A756E004A756C0056
:1038D00041756700536570004F6374004E6F76004A
:1038E0004465630029B1064AD2690243044BDA6198
:1038F00004E0034AD2698243014BDA617047000059
:103900000010024029B1064A12690243044B1A61B1
:1039100004E0034A12698243014B1A6170470000B8
:103920000010024029B1064A92690243044B9A6191
:1039300004E0034A92698243014B9A617047000098
:103940000010024030B500210022002400232D4D3C
:103950006D6805F00C0121B1042905D0082923D197
:1039600005E0294D056022E0274D05601FE0254D4B
:103970006D6805F47012234D6D6805F480340225DE
:1039800005EB92421CB9214D554305600BE01D4DDE
:103990006D6805F400351DB11C4D5543056002E00E
:1039A000194D5543056002E0174D056000BF00BF8B
:1039B000144D6D6805F0F0010909154D6B5C056843
:1039C000DD4045600F4D6D6805F4E061090A104D5A
:1039D0006B5C4568DD4085600A4D6D6805F460519B
:1039E000C90A0B4D6B5C4568DD40C560054D6D68CF
:1039F00005F44041890B074D6B5CC568B5FBF3F5D9
:103A0000056130BD0010024000127A0000093D003F
:103A10003000002040000020704770472DE9F04F33
:103A2000A1B082460E46154601F0D8FA8146B9F19A
:103A3000000F3CD05046FCF7B7FE074601F0BCFA39
:103A400083465A461BA1484601F09EFA304601F0D3
:103A5000CEFA07463A4619A1484601F095FA681C85
:103A600058B12846FCF7A0FE074601F0A5FA8346A8
:103A70005A4613A1484601F087FA484601F04CFB2C
:103A8000044684B110A011A313A28021009001A8C4
:103A900000F0E2FC214601A8FFF7D6FA20461749BC
:103AA0000968884700BF484601F0B0FA00BF21B05E
:103AB000BDE8F08F636F6465000000006D73670000
:103AC000646174610000000064310000694D696E3A
:103AD0003862513963360000247379732F25732FB0
:103AE00025732F7468696E672F70726F70657274BA
:103AF000792F7365745F7265706C79005C000020CB
:103B000010B500F001F810BD0CB500200190009038
:103B10003348006840F480303149086000BF3048C5
:103B2000006800F4003000900198401C019000985B
:103B300018B90198B0F5A06FF1D12948006800F4D8
:103B4000003010B10120009001E0002000900098AA
:103B5000012843D12348006840F010002149086043
:103B60000846006820F0070008600846006840F03A
:103B7000020008601A4840681949486008464068D1
:103B800048600846406840F48060486008464068E5
:103B900020F47C1048600846406840F4E810486013
:103BA0000846006840F08070086000BF0C4800685C
:103BB00000F000700028F9D00948406820F00300A8
:103BC000074948600846406840F00200486000BF6E
:103BD0000348406800F00C000828F9D10CBD000033
:103BE000001002400020024010B50446FEF718FA0B
:103BF0004620FEF7DBF92046FEF7D8F9FEF736FA45
:103C000010BD000017480088401C1649088016485F
:103C1000008820B114480088401E134908801148CC
:103C200000880A2190FBF1F201FB120010B901207B
:103C30000E4908700B4800884FF4FA7190FBF1F2BE
:103C400001FB120010B901200949087005480088DD
:103C5000B0F57A7F05DB0020024908800120054984
:103C6000087070471A00002048000020440000201F
:103C7000000000201800002010B51348006840F034
:103C800001001149086008464068104908400E4983
:103C90004860084600680E4908400B49086008461D
:103CA000006820F4802008600846406820F4FE0088
:103CB00048604FF41F008860FFF722FF4FF000605C
:103CC0000449086010BD0000001002400000FFF829
:103CD000FFFFF6FE08ED00E021B1028842F001028C
:103CE000028004E002884FF6FE731A40028070479B
:103CF00070B5002400220023058C4FF6FE76354077
:103D00000584028C8388048B4FF68F752C40B51E7A
:103D10002C400D882C43751E2A400D892A434D885E
:103D20002A43144DA8420BD0134DA84208D0134D7E
:103D3000A84205D0124DA84202D0124DA84213D17C
:103D40004FF6F7752A404D892A434FF6FB752A40F6
:103D50008D882A434FF6FF652B404FF6FF552B40C9
:103D60008D892B43CD892B4383800483CD88858621
:103D7000028470BD002C014000340140004001402D
:103D8000004401400048014070B500240022002397
:103D9000058C4FF6EF7635400584028C8388048BC2
:103DA00048F6FF752C404FF6FF452C400D884FF626
:103DB000FF7606EA05252C434FF6DF752A400D896C
:103DC00006EA05152A434D8806EA05152A43154DCE
:103DD000A84202D0144DA8421DD14FF67F752A404B
:103DE0004D894FF6FF7606EA05152A434FF6BF7553
:103DF0002A408D8806EA05152A434FF6FF352B40E9
:103E00004FF2FF752B408D8906EA85052B43CD893E
:103E100006EA85052B4383800483CD8805870284C9
:103E200070BD0000002C01400034014081867047C5
:103E300001877047002202881D4B98420ED01D4B0F
:103E400098420BD0B0F1804F08D01B4B984205D060
:103E50001A4B984202D01A4B984204D14FF68F73F6
:103E60001A404B881A43174B984207D0164B98427A
:103E700004D04FF6FF431A40CB881A4302808B8848
:103E800083850B8803850A4B98420BD0094B9842D7
:103E900008D00E4B984205D00D4B984202D00D4BE6
:103EA000984201D10B7A0386012383827047000078
:103EB000002C014000340140000400400008004094
:103EC000000C004000100040001400400040014081
:103ED000004401400048014010B540F2255104481B
:103EE00000F050F818B12021014800F029F810BD69
:103EF0000038014010B540F225510E4800F042F85C
:103F0000B0B10D480088802802D300200A490880FB
:103F10000848001D0088C1B2074802880088401C7C
:103F2000054B1880054881542021024800F008F80C
:103F300010BD0000004400404C0000209000002014
:103F400001F40072B2F5007F00D100BFCA430280C5
:103F5000704721B1828942F40052828104E0828953
:103F60004DF6FF731A408281704702460020B1F57A
:103F7000007F00D100BF13880B400BB1012000E08F
:103F80000020704770B50246002400230025002061
:103F900040F66A16B14200D100BFC1F3421501F0EC
:103FA0001F03012606FA03F3012D02D1968933403F
:103FB00006E0022D02D1168A334001E0968A334092
:103FC0000C12012606FA04F41688344013B10CB121
:103FD000012000E0002070BDF0B50346002400265B
:103FE0000025002040F66A17B94200D100BF1846EC
:103FF000C1F3421401F01F06012707FA06F5012C50
:1040000001D10C3004E0022C01D1103000E014305A
:104010001AB107682F43076002E00768AF430760E3
:10402000F0BD00002DE9F04786B005460E4600249D
:10403000A24600BFA1460027B08900B100BF2F46AD
:104040002C8A4CF6FF700440F08804432C82AC8923
:104050004EF6F3100440B088318908437189084353
:104060000443AC81AC8A4FF6FF400440B08904435E
:10407000AC8201A8FFF766FC1F48874202D1DDF839
:1040800010A001E0DDF80CA0A88900F4004040B1C8
:104090000AEBCA0000EB0A1031684900B0FBF1F8E6
:1040A00007E00AEBCA0000EB0A1031688900B0FB98
:1040B000F1F86420B8FBF0F004012009642101FB51
:1040C0001089A88900F4004040B1322000EBC900FB
:1040D000B0FBF1F000F00700044308E0322000EBF1
:1040E00009106421B0FBF1F000F00F0004432C81B3
:1040F00006B0BDE8F087000000380140C1F30802B7
:104100008280704710B54348007F20B14148006865
:10411000B0F5FA6F00DA10BD3E484069401C3D49D9
:104120004861084640693C2871DB00204861084628
:104130000069401C08610846036937A1C2683F480E
:1041400000F03EF9334800693C2860DB002031492B
:1041500008610846C068401CC860084638A1C268AB
:10416000364800F02DF92B48C06818284FDB002195
:10417000284AD16011468968491C916011464968F6
:10418000891E0A292AD2DFE801F0052924292529D8
:10419000292629271F4A1168CA1701EB927292102B
:1041A000A1EB82023AB91B4A1268642392FBF3F432
:1041B00003FB142242B9174A12684FF4C87392FBEA
:1041C000F3F403FB14220AB91D2200E01C2210465E
:1041D00006E000BF00BF00BF1E2001E01F2000BF9F
:1041E00000BF0C498968814210DD0121094A9160B4
:1041F00011464968491C5160114649680C2905DD82
:104200000121516011460968491C116000BF00BFBF
:1042100081E70000100100205B54494D455D204EB0
:104220006577206D696E7574653A20253032643A81
:10423000253032643A30300D0A0000000038014069
:104240005B54494D455D204E657720686F75723A25
:1042500020253032643A30303A30300D0A00000008
:1042600000BFFEE710B586B0044601210420FFF729
:1042700059FB01218803FFF755FB18208DF8170023
:104280004FF40070ADF8140003208DF8160005A956
:104290001E48FDF75CFB04208DF817000002ADF806
:1042A000140003208DF8160005A91848FDF74FFBF0
:1042B00001940020ADF810000C20ADF80E00002095
:1042C000ADF80C00ADF80A00ADF8080001A91048DF
:1042D000FFF7A8FE01210E48FFF73BFE012240F246
:1042E00025510B48FFF778FE25208DF800000120AE
:1042F0008DF8030000208DF8010002208DF80200E7
:104300006846FEF7FDFB06B010BD00000008014046
:104310000038014010B586B0044601210420FFF7A3
:1043200001FB01214804FFF7DDFA18208DF8170082
:104330000420ADF8140003208DF8160005A91E48CE
:10434000FDF705FB04208DF817000820ADF81400D8
:1043500003208DF8160005A91748FDF7F8FA019417
:104360000020ADF810000C20ADF80E000020ADF8D4
:104370000C00ADF80A00ADF8080001A90F48FFF7DE
:1043800051FE01210D48FFF7E4FD012240F22551C5
:104390000A48FFF721FE26208DF8000001208DF845
:1043A000030000208DF801008DF802006846FEF73A
:1043B000A7FB06B010BD000000080140004400400B
:1043C0000FB430B5CBB0054601AC50A800904FF407
:1043D000947101A8009B4F9A00F06CF800200090A7
:1043E0000BE014F8011B2846FFF788FE00BF4021B0
:1043F0002846FFF7BAFD0028F9D020780028F0D130
:104400004BB030BC5DF814FB2DE9F04107460C467B
:10441000154600260DE014F8011B3846FFF76EFE26
:1044200000BF40213846FFF7A0FD0028F9D0701CDE
:1044300086B2AE42EFDBBDE8F08110B504462146FE
:104440000020FDF7E5FC10BD10B5044621464020D4
:10445000FDF7DEFC10BD00000FB47CB50C0009AD0B
:1044600001D0611E00E00021CDE90001064B6A4643
:104470002946089800F09AF9002C02D0009A0021F1
:1044800011707CBC5DF814FBB34E00080FB4084BF0
:1044900010B504A902AA039800F088F9044602A9FD
:1044A000002000F011FD204610BC5DF814FB000058
:1044B000C94E00087CB50C001D461646014601D0C9
:1044C000601E00E00020CDE90010064B6A46294638
:1044D000304600F06BF9002C02D0009A00211170D8
:1044E0007CBD0000B34E0008490050EAC12018BF4F
:1044F00004204A0D18BF40F0010040F2FF72B2EBF9
:10450000515F08BF40F00200012808BF0520704736
:104510002DE9F0414F1E00EBC7010446D1E900012F
:1045200015461E4637F006020DD02A463346FCF7E4
:104530005AF87F1E04EBC703D3E90023FBF7ACFF57
:1045400037F00602F1D1022F25D0042F13D0062F09
:1045500018BFBDE8F0812A463346FCF744F8D4E999
:104560000A23FBF799FF2A463346FCF73CF8D4E9C7
:104570000823FBF791FF2A463346FCF734F8D4E9C9
:104580000623FBF789FF2A463346FCF72CF8D4E9CB
:104590000423FBF781FF2A463346FCF724F8D4E9CD
:1045A0000223FBF779FF2A463346FCF71CF8D4E9CF
:1045B0000023BDE8F041FBF76FBF00000022134667
:1045C00010460149FCF781B80000F03FFBF764BFDB
:1045D0000022134610461146FCF777B840F201322C
:1045E00000204FF0E041FCF7D3BA0000024A00205F
:1045F0001107FCF7CDBA000001FDFFFF02E008C87B
:10460000121F08C1002AFAD170477047002001E04C
:1046100001C1121F002AFBD1704700000149086048
:1046200070470000680000202DE9FF5F82B0002184
:10463000DDE90430020DDDF840B0034318D044F644
:104640001050A2F2FF3242431514119801281FD0D6
:10465000A5EB0B00401C5FEA000A4FF000064E4F2E
:10466000DFF83891B046504615D5CAF1000413E082
:10467000119801244AA3012801D16FEA0B01029885
:10468000119AC0E90031C0E9024206B0BDE8F09FCE
:10469000CBF10000DFE704460021404A491842EB15
:1046A0000450CDE9001012E0E00707D032463B4647
:1046B00040464946FBF797FF8046894632463B46CF
:1046C00010461946FBF78FFF06460F466410002C74
:1046D000EAD1DDE90401DDE90023BAF1000F06DAD1
:1046E000FBF781FF42464B46FBF77DFF05E0FBF7FA
:1046F000ECFF42464B46FBF7E8FF04460E4600221D
:10470000284BFCF7B9F803D84FF0FF30014607E01B
:104710000022254B20463146FBF7BEFEFCF74FFA40
:10472000102409E0002C0ADB0A220023FCF7F8F829
:10473000039B30321A55641E50EA0102F2D1641C08
:10474000039AC4F111031444119A012A03D00122DF
:1047500008430DD10AE0084304D000204FF0110BAC
:10476000119072E7A3EB0B056D1E0DE05B4504DDB8
:104770004FF0000205F1010504E003DA4FF00002FA
:10478000A5F10105002AECD002981199C0E9023187
:10479000C0E9004579E70000000014400000F03F48
:1047A000300000000000F0430000E03F2DE9FF4F23
:1047B00095B09A46884606460025EEE1252877D131
:1047C00000242746F94A0121039400E0044316F827
:1047D000013F203B01FA03F01042F7D130782A283C
:1047E00011D06FF02F033078A0F13002092A16D8CB
:1047F000039A44F0020402EB820203EB42021044EB
:10480000761C0390EFE758F8042B0392002A03DA92
:10481000504244F40054039044F00204761C307873
:104820002E2816D116F8010F44F004042A280DD0C2
:104830006FF02F023078A0F13003092B09D807EB75
:10484000870302EB4303C718761CF3E758F8047B91
:10485000761C30786C280FD006DC4C2817D06828DE
:104860000DD06A2814D104E0742810D07A280FD112
:104870000DE044F400140AE044F4801401E044F430
:1048800040147278824202D104F58014761C761CA2
:10489000307866280BD013DC582877D009DC002844
:1048A00075D04528F6D04628F4D047281AD193E190
:1048B00018E0632835D0642879D0652812D18BE1BF
:1048C000702873D008DC6728F1D069286FD06E2873
:1048D0000DD06F2806D1ACE073282CD0752874D089
:1048E000782853D05246179990476D1C54E1C4F371
:1048F0000250022809D003280DD0D8F8001004284F
:104900000DD00D6008F1040846E1D8F80010EA1750
:10491000C1E90052F6E7D8F800100D80F2E70D70FB
:10492000F0E718F8041B8DF8001000208DF8010046
:10493000EB46012003E058F804BB4FF0FF3061075D
:104940004FF0000102D40DE009F101018946B9429E
:104950000FDA8145F8DB1BF809100029F4D108E0D3
:1049600009F1010189468142FADB1BF8091000298F
:10497000F6D103985346A0EB090721463846179A0B
:1049800000F080FA284400EB090507E044E008E164
:104990000DE01BF8010B524617999047B9F1010938
:1049A000F7D2534621463846179AF2E039E00A21F9
:1049B000C4F302524FF0000B0091022A06D058F8BF
:1049C000040BC117032A09D00AE023E008F107000D
:1049D00020F00702F2E80201904605E000B2C1179C
:1049E000042A01D140B2C117002906DA0A46002183
:1049F000404261EB02012D2202E0220504D52B2268
:104A00008DF80420012203E0E20701D02022F7E71D
:104A1000914657E00A2100E010214FF0000B009171
:104A20000BE010214FF0000B44F004040827009124
:104A300003E008204FF0000B0090C4F30252022A5A
:104A400005D058F8040B0021032A08D008E008F12B
:104A5000070020F00702F2E80201904603E080B26E
:104A6000042A00D1C0B24FF0000922072AD53278BB
:104A7000702A07D0DDF800C08CF0100C5CEA0B0C3B
:104A800005D00EE040228DF80420012208E050EA13
:104A9000010306D030238DF804308DF80520022262
:104AA0009146009B83F0080353EA0B030AD150EAB6
:104AB000010201D1620705D530228DF804204FF0A4
:104AC00001097F1E3278582A04D039A20C920CAA10
:104AD00002920BE03BA2F9E75B46009AFBF720FF4E
:104AE0000C9B9B5C029A521E0292137050EA0102C8
:104AF000F2D1029804A9081A00F1200B600702D530
:104B000024F4803400E001275F4502DDA7EB0B00B1
:104B100000E0002000EB0B01009003984944401A8C
:104B20000390E00306D453462146179A039800F0F9
:104B3000A9F90544002706E001A85246C05D17996F
:104B400090476D1C7F1C4F45F6DBE0030CD55346A8
:104B50002146179A039800F095F9054404E03020A7
:104B60005246179990476D1C0099481E00900029E5
:104B7000F5DC08E00298029952460078491C02913F
:104B8000179990476D1CBBF10001ABF1010BF1DCF3
:104B90005BE100F065F90544761C307800287FF46D
:104BA0000DAE19B02846BDE8F08F000009280100BD
:104BB0003031323334353637383961626364656693
:104BC0000000000030313233343536373839414255
:104BD0004344454600000000600700D4062708F162
:104BE000070020F00700F0E80223804603F0004CA5
:104BF0005FEA0C0001D097A009E0200501D596A03E
:104C000005E0E00701D095A001E0AFF24C00139061
:104C1000307823F0004365280CD006DC452809D005
:104C200046281DD047287FD13BE0662818D067284A
:104C30007AD136E00021112F01DB112000E0781C31
:104C4000CDE9000104A90CA8FFF7EEFCDDE90D0198
:104C50000C9A4FF0000B07F10109109200914EE001
:104C60004FF000400097CDE9011004A90CA8FFF710
:104C7000DBFCDDE90D020C9B0F994FF0000B914618
:104C80001093009211B9791C00EB0109B7EB0900F0
:104C900003D4C0F1FF3B07F10109A9EB0700019024
:104CA00042E0012F00DA01270021112F01DD112040
:104CB00000E03846CDE9000104A90CA8FFF7B4FCD8
:104CC000DDE90D010C9A00914FF0000BB9461092EE
:104CD00021070FD4009A4A4503DA914601E0A9F171
:104CE0000109B9F1010F05DD109AA9F10101515C2B
:104CF0003029F4D0B84202DA10F1040F03DA0121AE
:104D0000CDE9011010E0002803DC8344A9EB000189
:104D100002E0411C494500DD8946A0EB0B00401C28
:104D200001904FF000400290200705D401984845BB
:104D300002DB4FF0FF30019000208DF84B0002980D
:104D40000DF14B07B0F1004F25D002200C902B2025
:104D50000D90029800280CDA404202902D200D9010
:104D600007E00A210298FBF7C5FD3031029007F8F1
:104D7000011D0C99481E0C900029F2DC02980028B5
:104D8000EFD1791E0D980870307800F0200040F0C7
:104D9000450007F8020D11A8C01BC01D0290139812
:104DA000007800B1012000EB0901019801EBE071EE
:104DB000029801440398401A401E0390E00306D471
:104DC00053462146179A039800F05CF8054413985F
:104DD000007818B15246179990476D1CE00323D50F
:104DE00053462146179A039800F04CF805441BE0FF
:104DF000BBF1000F07DB0098584504DD10981799A8
:104E000010F80B0001E017993020524690470198A6
:104E10000BF1010B401E05F10105019004D12E207C
:104E20005246179990476D1CB9F10001A9F101098B
:104E3000DEDC05E017F8010B5246179990476D1C10
:104E40000299481E02900029F4DC53462146179A25
:104E500003989EE62D0000002B00000020000000BB
:104E60002DE9F041044600251E461746880404D467
:104E700005E039462020B0476D1C641EF9D5284650
:104E8000BDE8F0812DE9F041044600251E4690461C
:104E9000C80301D5302700E02027880404D505E0A9
:104EA00041463846B0476D1C641EF9D52846BDE81A
:104EB000F0814A68002A06D00A68531C0B60107003
:104EC0004868401E486070470A68531C0B601070A9
:104ED0007047000008B501210420FEF723FD1020D3
:104EE0008DF803000002ADF8000003208DF80200E9
:104EF00069460448FCF72BFD4FF480510148FCF74C
:104F000004FE08BD0008014070B5FDF789F8472090
:104F1000FDF74CF8FDF7D4F80120FDF70FF8044633
:104F20000020FDF70BF8064606EB042085B2FDF7DE
:104F30009DF8284670BD10B5044600BFFDF770F817
:104F40004620FDF733F8FDF7BBF80028F6D12046E0
:104F5000FDF72CF8FDF7B4F8FDF788F810BD70B533
:104F600005460E46AC6806B970BD0CB9AE6009E0E6
:104F700000E0246814B120680028FAD131462046A8
:104F800003F00DF800BFEFE770B506460D46144676
:104F900004B970BD206A18B10649206A09688847BB
:104FA000284600F0E9F8206221463046FFF7D7FF97
:104FB00000BFEEE75C00002070B505460E4600F02D
:104FC00061F8044644B10320E060C4E9065628466F
:104FD0003146FBF707FC6061204670BD10B500F05C
:104FE00051F804460CB10620E060204610BD70B5B3
:104FF000054600F047F804462CB10420E06028463E
:1050000000F0BAF82061204670BD000070B504467B
:1050100022E02568A08900F4807020B9A06810B152
:10502000A068FFF7F3FFA08900F4807028B9206919
:1050300018B10B49206909688847A08900F40070FD
:1050400028B9206A18B10649206A096888472046AD
:105050000349096888472C46002CDAD170BD00004E
:105060005C00002070B505460E46AC6800E0246880
:105070002CB13146206A00F058F80028F7D12046BC
:1050800070BD000010B5282005490968884704460E
:105090001CB128212046FBF766F8204610BD000011
:1050A0005800002010B5044600221146204600F0AA
:1050B00001F810BD2DE9F04780460D461646002444
:1050C000FFF7E0FF07460020124908600FB9BDE86E
:1050D000F087404602F034FF81464946384601F0E9
:1050E000F3FA044624B93846FFF790FF0020EEE7B4
:1050F00066B1204602F024FF0446207830B13846DD
:10510000FFF784FF034804600020E0E705B12C604E
:105110003846DCE75400002010B5044600231A4648
:105120001946204602F01AFD10BD70B504460D4622
:105130002CB9AC4201D0012070BD0020FCE70DB9B4
:105140000120F9E705E0207808B90020F4E7641CA5
:105150006D1C2078FAF7E8FF06462878FAF7E4FF96
:105160008642F0D02078FAF7DFFF06462878FAF773
:10517000DBFF301AE0E7000070B504462046FBF77D
:1051800025F8451C2846064909688847061E00D1AF
:1051900070BD2A4621463046FAF7CCFF3046F7E785
:1051A0005800002030B5144800684FF47A72B0FB04
:1051B000F2F1B1F1807F00D31DE021F07F40401E6D
:1051C0004FF0E022506150170F22002807DA130732
:1051D0001D0E0A4B00F00F04241F1D5503E013079A
:1051E0001C0E074B1C5400BF00204FF0E0229061C2
:1051F0000720106100BF30BD1C00002018ED00E04A
:1052000000E400E0F0B502464FF0E02674697669EC
:105210004FF47A77B6FBF7F606FB02F54FF0E0267F
:10522000B1690CE04FF0E026B069814202D2661805
:10523000361A00E00E1A3346AB4200D900E0F1E71F
:1052400000BFF0BD0349088000BF0249098800295A
:10525000FBD17047480000202DE9F04104460E467E
:105260000CB1206810B90020BDE8F081A0680644A8
:105270006068B04203DBA16820680844F4E7304668
:1052800001F06CFF074638460D4909688847054616
:105290003DB90C492068096888470020606020609B
:1052A000E2E725B12846D4E90012FAF743FF0549A1
:1052B00020680968884767602560A0682844D3E7AC
:1052C000580000205C0000202DE9F041C1F30A5293
:1052D000A2F2FF362F4A304B0D460446142E2FDA29
:1052E000002E12DAFBF7D8F800221346FBF7C4FAB7
:1052F0004CD2002DA4BF0024254647DA25F00040FB
:10530000204318BF254D41D018E0DFF894C02CFA97
:1053100006F705EA070C5CEA040C08BFBDE8F0815B
:10532000FBF7BAF800221346FBF7A6FA2ED2002D9F
:1053300003DA4FF48010F0400544BD43002425E01B
:10534000332EC8BFBDE8F081A6F1140C4FF0FF3733
:1053500027FA0CF73C4208BFBDE8F081FBF740F9A3
:1053600000221346FBF788FA10D2002D0DDA142E16
:1053700008BF6D1C09D0C6F13400012101FA00F00C
:105380002044A04238BF6D1C0446BC432946204639
:10539000BDE8F0819C7500883CE4377E0000F0BFDA
:1053A000FFFF0F0010B5002821D0114B0022001F75
:1053B000196803E0814203D80A4649680029F9D1F7
:1053C00052B11368841A9C4204D1006818441060DA
:1053D000104602E0506000E0186039B102680B1A14
:1053E000934203D10B681A4402604968416010BDC2
:1053F00060000020F0B50446142C06DA01EA02052C
:1054000023EA010685EA060019E0282C04DA81EA7D
:10541000020787EA030012E03C2C0ADA01EA0205DF
:1054200001EA030787EA050602EA030787EA06009E
:1054300005E0502C03DA81EA020787EA0300F0BD99
:105440002DE9F04FADF5B36D07460E4692469846EE
:10545000DDF8BC9540254FF0360B5C20CDF8940567
:10546000002404E000200DF254510855641C402C27
:10547000F8DBAE421DD0AE420FDD4A46314638461B
:1054800002F01CFC002405E019F804000DF2545150
:105490000855641C142CF7DB14E0AE4212DA002429
:1054A00004E0385D0DF254510855641CB442F8DB39
:1054B00008E0002404E0385D0DF254510855641CE6
:1054C000AC42F8DB002408E00DF25450005D80EAA5
:1054D0000B000DF214510855641C402CF4DB002421
:1054E00005E00DF21450005D15A90855641C402C10
:1054F000F7DB002406E01AF8041015AA04F14000B6
:105500001154641C4445F6DB08EB05014A4615A816
:1055100002F0D4FB002409E00DF25450005DDDF8E8
:10552000941548400DF2D4410855641C402CF3DB1F
:10553000002405E00DF2D440005D0DF80400641C69
:10554000402CF7DB002406E019F8041004F14000B9
:105550000DF80010641C142CF6DB4A4605F114010A
:10556000684602F0ABFB0DF5B36DBDE8F08F0000AF
:105570000146142901DA07480AE0282901DA064819
:1055800006E03C2901DA054802E0502900DA044827
:10559000704700009979825AA1EBD96EDCBC1B8F51
:1055A000D6C162CA10B500F05BF80446FCB1062C07
:1055B00018D2DFE804F01703070B0F1301200C4982
:1055C000087013E002200A4908700FE00320084920
:1055D00008700BE004200649087007E00520044924
:1055E000087003E000200249087000BF00BF10BD32
:1055F0004500002008B5FFF76DFC01210420FEF7EF
:1056000091F901210820FEF78DF901210846FEF7E6
:1056100089F901210F48FCF725FA48208DF803008D
:105620004FF40840ADF8000001208DF802006946F3
:105630000948FCF78CF948208DF803003820ADF8B4
:10564000000001208DF8020069460448FCF77FF94C
:1056500008BD00000002300000080140000C0140BD
:1056600010B55A480078012875D1002057490870B4
:105670005748007820B101282BD002286CD172E065
:105680004FF400615348FCF735FAA0B14FF40041E4
:105690005048FCF72FFA70B108214F48FCF72AFA5E
:1056A00048B120214C48FCF725FA20B110214A4886
:1056B000FCF720FA30B9012045490870002047491D
:1056C000087005E00020424908704449087010BD88
:1056D00000BF4FF400613F48FCF70CFA38B90220D4
:1056E0003B49087001203D4908700020EFE74FF466
:1056F00000413848FCF7FEF930B9022034490870FF
:10570000364908700020E2E708213348FCF7F2F937
:1057100038B902202E490870032030490870002053
:10572000D5E710212C48FCF7E5F938B902202849C3
:1057300008700420294908700020C8E72021264865
:10574000FCF7D8F948B902202149087005202349FF
:1057500008700020BBE737E034E000201C490870E7
:105760001E490870B3E74FF400611A48FCF7C2F90C
:10577000A0B14FF400411748FCF7BCF970B1082103
:105780001548FCF7B7F948B120211348FCF7B2F9E6
:1057900020B110211048FCF7ADF940B902200C49A6
:1057A0000870C1020B48FCF7AEF900208FE700201B
:1057B000074908704FF480510648FCF7A6F90748DE
:1057C000007884E7002082E7002080E74400002082
:1057D0004600002000080140000C01404700002066
:1057E00094B0002013900026814664201290FCF7AC
:1057F00091F9FBF76DFE0223FDA200210846FDF79B
:1058000053FA09E04FF4FA70FFF71CFD0223FCA2E3
:1058100019460020FDF748FAFDF7A4FC0028F1D155
:10582000FDF750FC0223F9A200210846FDF73CFADF
:10583000FA4880680090F9484368F9A10268FC487A
:10584000FEF724FE0123FA4A00210846FDF72CFA50
:10585000F24840690090F1480369F6A1C268F44833
:10586000FEF714FE0123F24A00214020FDF71CFA46
:10587000C820FFF7E7FCFDF785F94EE3F148007813
:10588000002876D00020EF490870FEF73BFCE34883
:10589000007F00282FD0E1480068B0F5FA6F2ADBBE
:1058A000DE4880680090DD484368DDA10268E0487A
:1058B000FEF7ECFD0123DE4A00210846FDF7F4F96E
:1058C000D64840690090D5480369DAA1C268D84833
:1058D000FEF7DCFD0123D64A00214020FDF7E4F964
:1058E000CE4840690090CD480369D7A1C268DC4822
:1058F000FEF766FD05E00123DAA200210846FDF768
:10590000D3F9DC480078022853D1C44890F80CA0A1
:1059100090F810B0CAEB0A100BEB8004D648407820
:10592000D5490978C1EB011100EB8105D248C07857
:10593000D1498978C1EB011100EB8107BD4208DC38
:10594000AC4203DBBC4201DC012000E000208046C9
:1059500007E0AC4201DABC4201DC012000E000209B
:105960008046B8F1000F05D0C3480079C3490870DC
:1059700003E01EE00020C1490870C0480078FBF732
:105980004DFBC0B212904FF080401299FEF74EFAD4
:105990004FF080401299FEF74BFAB8480078CDE9F5
:1059A00000809E480369B6A1C268AD48FEF708FDB5
:1059B00000BFFFF7F7FDBF480078002877D0BD484B
:1059C0000078012806D0022839D0032856D00428B0
:1059D00034D1ADE0A748007818B90120A549087076
:1059E0000AE0A4480078012803D10220A1490870E8
:1059F00002E000209F4908700223AFA20521002089
:105A0000FDF752F90123ACA207210020FDF74CF964
:105A10000123AFA204217020FDF746F90123A9A2BA
:105A200003215320FDF740F992480078012802D164
:105A30005A20A84908700020A7490870BFE08D4887
:105A4000007801280BD1A3480078B42801DB00209E
:105A500002E0A04800781E309E4908700DE085489D
:105A60000078022809D19C480078401C052190FB51
:105A7000F1F201FB120098490870A0E07D4800781F
:105A800001280BD193480078002801DCB42002E003
:105A9000904800781E388F49087048E075480078B3
:105AA000022844D18C48007805283FD200E08AE0E3
:105AB000DFE800F0030E19242F006F480078401C27
:105AC000182190FBF1F201FB12006B4908702DE0E8
:105AD00069484078401C3C2190FBF1F201FB120028
